{
  "_format": "hh-sol-artifact-1",
  "contractName": "FamousPaintingNFT",
  "sourceName": "src/backend/contracts/FamousPaintingsNFT.sol",
  "abi": [
    {
      "inputs": [],
      "stateMutability": "nonpayable",
      "type": "constructor"
    },
    {
      "anonymous": false,
      "inputs": [
        {
          "indexed": true,
          "internalType": "address",
          "name": "account",
          "type": "address"
        },
        {
          "indexed": true,
          "internalType": "address",
          "name": "operator",
          "type": "address"
        },
        {
          "indexed": false,
          "internalType": "bool",
          "name": "approved",
          "type": "bool"
        }
      ],
      "name": "ApprovalForAll",
      "type": "event"
    },
    {
      "anonymous": false,
      "inputs": [
        {
          "indexed": true,
          "internalType": "address",
          "name": "previousOwner",
          "type": "address"
        },
        {
          "indexed": true,
          "internalType": "address",
          "name": "newOwner",
          "type": "address"
        }
      ],
      "name": "OwnershipTransferred",
      "type": "event"
    },
    {
      "anonymous": false,
      "inputs": [
        {
          "indexed": false,
          "internalType": "address",
          "name": "account",
          "type": "address"
        }
      ],
      "name": "Paused",
      "type": "event"
    },
    {
      "anonymous": false,
      "inputs": [
        {
          "indexed": true,
          "internalType": "address",
          "name": "operator",
          "type": "address"
        },
        {
          "indexed": true,
          "internalType": "address",
          "name": "from",
          "type": "address"
        },
        {
          "indexed": true,
          "internalType": "address",
          "name": "to",
          "type": "address"
        },
        {
          "indexed": false,
          "internalType": "uint256[]",
          "name": "ids",
          "type": "uint256[]"
        },
        {
          "indexed": false,
          "internalType": "uint256[]",
          "name": "values",
          "type": "uint256[]"
        }
      ],
      "name": "TransferBatch",
      "type": "event"
    },
    {
      "anonymous": false,
      "inputs": [
        {
          "indexed": true,
          "internalType": "address",
          "name": "operator",
          "type": "address"
        },
        {
          "indexed": true,
          "internalType": "address",
          "name": "from",
          "type": "address"
        },
        {
          "indexed": true,
          "internalType": "address",
          "name": "to",
          "type": "address"
        },
        {
          "indexed": false,
          "internalType": "uint256",
          "name": "id",
          "type": "uint256"
        },
        {
          "indexed": false,
          "internalType": "uint256",
          "name": "value",
          "type": "uint256"
        }
      ],
      "name": "TransferSingle",
      "type": "event"
    },
    {
      "anonymous": false,
      "inputs": [
        {
          "indexed": false,
          "internalType": "string",
          "name": "value",
          "type": "string"
        },
        {
          "indexed": true,
          "internalType": "uint256",
          "name": "id",
          "type": "uint256"
        }
      ],
      "name": "URI",
      "type": "event"
    },
    {
      "anonymous": false,
      "inputs": [
        {
          "indexed": false,
          "internalType": "address",
          "name": "account",
          "type": "address"
        }
      ],
      "name": "Unpaused",
      "type": "event"
    },
    {
      "inputs": [
        {
          "internalType": "address",
          "name": "account",
          "type": "address"
        },
        {
          "internalType": "uint256",
          "name": "id",
          "type": "uint256"
        }
      ],
      "name": "balanceOf",
      "outputs": [
        {
          "internalType": "uint256",
          "name": "",
          "type": "uint256"
        }
      ],
      "stateMutability": "view",
      "type": "function"
    },
    {
      "inputs": [
        {
          "internalType": "address[]",
          "name": "accounts",
          "type": "address[]"
        },
        {
          "internalType": "uint256[]",
          "name": "ids",
          "type": "uint256[]"
        }
      ],
      "name": "balanceOfBatch",
      "outputs": [
        {
          "internalType": "uint256[]",
          "name": "",
          "type": "uint256[]"
        }
      ],
      "stateMutability": "view",
      "type": "function"
    },
    {
      "inputs": [],
      "name": "differentKinds",
      "outputs": [
        {
          "internalType": "uint256",
          "name": "",
          "type": "uint256"
        }
      ],
      "stateMutability": "view",
      "type": "function"
    },
    {
      "inputs": [
        {
          "internalType": "uint256",
          "name": "id",
          "type": "uint256"
        }
      ],
      "name": "exists",
      "outputs": [
        {
          "internalType": "bool",
          "name": "",
          "type": "bool"
        }
      ],
      "stateMutability": "view",
      "type": "function"
    },
    {
      "inputs": [
        {
          "internalType": "address",
          "name": "account",
          "type": "address"
        },
        {
          "internalType": "address",
          "name": "operator",
          "type": "address"
        }
      ],
      "name": "isApprovedForAll",
      "outputs": [
        {
          "internalType": "bool",
          "name": "",
          "type": "bool"
        }
      ],
      "stateMutability": "view",
      "type": "function"
    },
    {
      "inputs": [
        {
          "internalType": "uint256",
          "name": "id",
          "type": "uint256"
        },
        {
          "internalType": "uint256",
          "name": "amount",
          "type": "uint256"
        }
      ],
      "name": "mint",
      "outputs": [],
      "stateMutability": "payable",
      "type": "function"
    },
    {
      "inputs": [
        {
          "internalType": "address",
          "name": "to",
          "type": "address"
        },
        {
          "internalType": "uint256[]",
          "name": "ids",
          "type": "uint256[]"
        },
        {
          "internalType": "uint256[]",
          "name": "amounts",
          "type": "uint256[]"
        },
        {
          "internalType": "bytes",
          "name": "data",
          "type": "bytes"
        }
      ],
      "name": "mintBatch",
      "outputs": [],
      "stateMutability": "nonpayable",
      "type": "function"
    },
    {
      "inputs": [],
      "name": "mintPrice",
      "outputs": [
        {
          "internalType": "uint256",
          "name": "",
          "type": "uint256"
        }
      ],
      "stateMutability": "view",
      "type": "function"
    },
    {
      "inputs": [],
      "name": "owner",
      "outputs": [
        {
          "internalType": "address",
          "name": "",
          "type": "address"
        }
      ],
      "stateMutability": "view",
      "type": "function"
    },
    {
      "inputs": [],
      "name": "pause",
      "outputs": [],
      "stateMutability": "nonpayable",
      "type": "function"
    },
    {
      "inputs": [],
      "name": "paused",
      "outputs": [
        {
          "internalType": "bool",
          "name": "",
          "type": "bool"
        }
      ],
      "stateMutability": "view",
      "type": "function"
    },
    {
      "inputs": [],
      "name": "renounceOwnership",
      "outputs": [],
      "stateMutability": "nonpayable",
      "type": "function"
    },
    {
      "inputs": [
        {
          "internalType": "address",
          "name": "from",
          "type": "address"
        },
        {
          "internalType": "address",
          "name": "to",
          "type": "address"
        },
        {
          "internalType": "uint256[]",
          "name": "ids",
          "type": "uint256[]"
        },
        {
          "internalType": "uint256[]",
          "name": "amounts",
          "type": "uint256[]"
        },
        {
          "internalType": "bytes",
          "name": "data",
          "type": "bytes"
        }
      ],
      "name": "safeBatchTransferFrom",
      "outputs": [],
      "stateMutability": "nonpayable",
      "type": "function"
    },
    {
      "inputs": [
        {
          "internalType": "address",
          "name": "from",
          "type": "address"
        },
        {
          "internalType": "address",
          "name": "to",
          "type": "address"
        },
        {
          "internalType": "uint256",
          "name": "id",
          "type": "uint256"
        },
        {
          "internalType": "uint256",
          "name": "amount",
          "type": "uint256"
        },
        {
          "internalType": "bytes",
          "name": "data",
          "type": "bytes"
        }
      ],
      "name": "safeTransferFrom",
      "outputs": [],
      "stateMutability": "nonpayable",
      "type": "function"
    },
    {
      "inputs": [
        {
          "internalType": "address",
          "name": "operator",
          "type": "address"
        },
        {
          "internalType": "bool",
          "name": "approved",
          "type": "bool"
        }
      ],
      "name": "setApprovalForAll",
      "outputs": [],
      "stateMutability": "nonpayable",
      "type": "function"
    },
    {
      "inputs": [
        {
          "internalType": "string",
          "name": "newuri",
          "type": "string"
        }
      ],
      "name": "setURI",
      "outputs": [],
      "stateMutability": "nonpayable",
      "type": "function"
    },
    {
      "inputs": [
        {
          "internalType": "bytes4",
          "name": "interfaceId",
          "type": "bytes4"
        }
      ],
      "name": "supportsInterface",
      "outputs": [
        {
          "internalType": "bool",
          "name": "",
          "type": "bool"
        }
      ],
      "stateMutability": "view",
      "type": "function"
    },
    {
      "inputs": [
        {
          "internalType": "uint256",
          "name": "",
          "type": "uint256"
        }
      ],
      "name": "tokenMaxSupplies",
      "outputs": [
        {
          "internalType": "uint256",
          "name": "",
          "type": "uint256"
        }
      ],
      "stateMutability": "view",
      "type": "function"
    },
    {
      "inputs": [
        {
          "internalType": "uint256",
          "name": "id",
          "type": "uint256"
        }
      ],
      "name": "totalSupply",
      "outputs": [
        {
          "internalType": "uint256",
          "name": "",
          "type": "uint256"
        }
      ],
      "stateMutability": "view",
      "type": "function"
    },
    {
      "inputs": [
        {
          "internalType": "address",
          "name": "newOwner",
          "type": "address"
        }
      ],
      "name": "transferOwnership",
      "outputs": [],
      "stateMutability": "nonpayable",
      "type": "function"
    },
    {
      "inputs": [],
      "name": "unpause",
      "outputs": [],
      "stateMutability": "nonpayable",
      "type": "function"
    },
    {
      "inputs": [
        {
          "internalType": "uint256",
          "name": "_id",
          "type": "uint256"
        }
      ],
      "name": "uri",
      "outputs": [
        {
          "internalType": "string",
          "name": "",
          "type": "string"
        }
      ],
      "stateMutability": "view",
      "type": "function"
    },
    {
      "inputs": [
        {
          "internalType": "address",
          "name": "_addr",
          "type": "address"
        }
      ],
      "name": "withdraw",
      "outputs": [],
      "stateMutability": "nonpayable",
      "type": "function"
    }
  ],
  "bytecode": "0x6080604052662386f26fc10000600555600a6006553480156200002157600080fd5b5060405180606001604052806036815260200162002646603691396200004781620001d6565b506200005333620001ef565b6003805460ff60a01b19168155600760205260057fb39221ace053465ec3453ce2b36430bd138b997ecea25c1043da0c366812b828557fb7c774451310d1be4108bc180d1b52823cb0ee0274a6c0081bcaf94f115fb96d8190557f3be6fd20d5acfde5b873b48692cd31f4d3c7e8ee8a813af4696af8859e5ca6c68190557fb805995a7ec585a251200611a61d179cfd7fb105e1ab17dc415a7336783786f78190557fbcdda56b5d08466ec462cbbe0adfa57cb0a15fcc8940ef68f702f21b787bc9355560027f55c5b153ab560fcde54a63b18c7f53d75501706907cef8767fbded79ab9997c78190557fb7c49cceb9f85950584035457a41ebbd8cf93b9b612733ad25aa9731ac43aad68190557f4b1bf46c9f1bd48ff8274d40bad76a6615cb6c59a637d451a3994194b2db86be5560017ff1f3e9c34634a546b3672c043f73844d83d55591bbe61b8e7e3a72bca1a812bf819055600a6000527f3ed157e83ab1bb1f6b7b3760b3368106283d4e15d1f1b08e20d06576445a99945562000324565b8051620001eb90600290602084019062000241565b5050565b600380546001600160a01b038381166001600160a01b0319831681179093556040519116919082907f8be0079c531659141344cd1fd0a4f28419497f9722a3daafe3b4186f6b6457e090600090a35050565b8280546200024f90620002e7565b90600052602060002090601f016020900481019282620002735760008555620002be565b82601f106200028e57805160ff1916838001178555620002be565b82800160010185558215620002be579182015b82811115620002be578251825591602001919060010190620002a1565b50620002cc929150620002d0565b5090565b5b80821115620002cc5760008155600101620002d1565b600181811c90821680620002fc57607f821691505b602082108114156200031e57634e487b7160e01b600052602260045260246000fd5b50919050565b61231280620003346000396000f3fe60806040526004361061013f5760003560e01c806351cff8d9116100b6578063a22cb4651161006f578063a22cb46514610377578063ac2ffd1214610397578063bd85b039146103c4578063e985e9c5146103f1578063f242432a1461043a578063f2fde38b1461045a57600080fd5b806351cff8d9146102d05780635c975abb146102f05780636817c76c1461030f578063715018a6146103255780638456cb591461033a5780638da5cb5b1461034f57600080fd5b80631b2ef1ca116101085780631b2ef1ca1461020c5780631f7fdffa1461021f5780632eb2c2d61461023f5780633f4ba83a1461025f5780634e1273f4146102745780634f558e79146102a157600080fd5b8062fdd58e1461014457806301ffc9a71461017757806302fe5305146101a75780630e89341c146101c957806312034895146101f6575b600080fd5b34801561015057600080fd5b5061016461015f3660046118a6565b61047a565b6040519081526020015b60405180910390f35b34801561018357600080fd5b506101976101923660046118e6565b610510565b604051901515815260200161016e565b3480156101b357600080fd5b506101c76101c23660046119ab565b610562565b005b3480156101d557600080fd5b506101e96101e43660046119fc565b610576565b60405161016e9190611a6d565b34801561020257600080fd5b5061016460065481565b6101c761021a366004611a80565b610606565b34801561022b57600080fd5b506101c761023a366004611b57565b610736565b34801561024b57600080fd5b506101c761025a366004611bf0565b610750565b34801561026b57600080fd5b506101c761079c565b34801561028057600080fd5b5061029461028f366004611c9a565b6107ae565b60405161016e9190611da0565b3480156102ad57600080fd5b506101976102bc3660046119fc565b600090815260046020526040902054151590565b3480156102dc57600080fd5b506101c76102eb366004611db3565b6108d8565b3480156102fc57600080fd5b50600354600160a01b900460ff16610197565b34801561031b57600080fd5b5061016460055481565b34801561033157600080fd5b506101c761091d565b34801561034657600080fd5b506101c761092f565b34801561035b57600080fd5b506003546040516001600160a01b03909116815260200161016e565b34801561038357600080fd5b506101c7610392366004611dce565b61093f565b3480156103a357600080fd5b506101646103b23660046119fc565b60076020526000908152604090205481565b3480156103d057600080fd5b506101646103df3660046119fc565b60009081526004602052604090205490565b3480156103fd57600080fd5b5061019761040c366004611e0a565b6001600160a01b03918216600090815260016020908152604080832093909416825291909152205460ff1690565b34801561044657600080fd5b506101c7610455366004611e3d565b61094a565b34801561046657600080fd5b506101c7610475366004611db3565b61098f565b60006001600160a01b0383166104ea5760405162461bcd60e51b815260206004820152602a60248201527f455243313135353a2061646472657373207a65726f206973206e6f742061207660448201526930b634b21037bbb732b960b11b60648201526084015b60405180910390fd5b506000908152602081815260408083206001600160a01b03949094168352929052205490565b60006001600160e01b03198216636cdb3d1360e11b148061054157506001600160e01b031982166303a24d0760e21b145b8061055c57506301ffc9a760e01b6001600160e01b03198316145b92915050565b61056a610a05565b61057381610a5f565b50565b6000818152600460205260409020546060906105cd5760405162461bcd60e51b81526020600482015260166024820152752aa9249d103737b732bc34b9ba32b73a103a37b5b2b760511b60448201526064016104e1565b6105d682610a72565b6105df83610b06565b6040516020016105f0929190611ea2565b6040516020818303038152906040529050919050565b61060e610b9b565b811580159061061f57506006548211155b61065b5760405162461bcd60e51b815260206004820152600d60248201526c24b73b30b634b21024a217171760991b60448201526064016104e1565b600082815260076020908152604080832054600490925290912054610681908390611ef7565b11156106c45760405162461bcd60e51b815260206004820152601260248201527113585e081cdd5c1c1b1e481c995858da195960721b60448201526064016104e1565b806005546106d29190611f0f565b3410156107175760405162461bcd60e51b81526020600482015260136024820152722737ba1032b737bab3b41022ba3432b917171760691b60448201526064016104e1565b61073233838360405180602001604052806000815250610be8565b5050565b61073e610a05565b61074a84848484610cd1565b50505050565b6001600160a01b03851633148061076c575061076c853361040c565b6107885760405162461bcd60e51b81526004016104e190611f2e565b6107958585858585610e2b565b5050505050565b6107a4610a05565b6107ac610fd5565b565b606081518351146108135760405162461bcd60e51b815260206004820152602960248201527f455243313135353a206163636f756e747320616e6420696473206c656e677468604482015268040dad2e6dac2e8c6d60bb1b60648201526084016104e1565b6000835167ffffffffffffffff81111561082f5761082f61190a565b604051908082528060200260200182016040528015610858578160200160208202803683370190505b50905060005b84518110156108d0576108a385828151811061087c5761087c611f7c565b602002602001015185838151811061089657610896611f7c565b602002602001015161047a565b8282815181106108b5576108b5611f7c565b60209081029190910101526108c981611f92565b905061085e565b509392505050565b6108e0610a05565b60405147906001600160a01b0383169082156108fc029083906000818181858888f19350505050158015610918573d6000803e3d6000fd5b505050565b610925610a05565b6107ac600061102a565b610937610a05565b6107ac61107c565b6107323383836110bf565b6001600160a01b0385163314806109665750610966853361040c565b6109825760405162461bcd60e51b81526004016104e190611f2e565b61079585858585856111a0565b610997610a05565b6001600160a01b0381166109fc5760405162461bcd60e51b815260206004820152602660248201527f4f776e61626c653a206e6577206f776e657220697320746865207a65726f206160448201526564647265737360d01b60648201526084016104e1565b6105738161102a565b6003546001600160a01b031633146107ac5760405162461bcd60e51b815260206004820181905260248201527f4f776e61626c653a2063616c6c6572206973206e6f7420746865206f776e657260448201526064016104e1565b80516107329060029060208401906117f1565b606060028054610a8190611fad565b80601f0160208091040260200160405190810160405280929190818152602001828054610aad90611fad565b8015610afa5780601f10610acf57610100808354040283529160200191610afa565b820191906000526020600020905b815481529060010190602001808311610add57829003601f168201915b50505050509050919050565b60606000610b13836112d8565b600101905060008167ffffffffffffffff811115610b3357610b3361190a565b6040519080825280601f01601f191660200182016040528015610b5d576020820181803683370190505b5090508181016020015b600019016f181899199a1a9b1b9c1cb0b131b232b360811b600a86061a8153600a8504945084610b96576108d0565b610b67565b600354600160a01b900460ff16156107ac5760405162461bcd60e51b815260206004820152601060248201526f14185d5cd8589b194e881c185d5cd95960821b60448201526064016104e1565b6001600160a01b038416610c0e5760405162461bcd60e51b81526004016104e190611fe8565b336000610c1a856113b0565b90506000610c27856113b0565b9050610c38836000898585896113fb565b6000868152602081815260408083206001600160a01b038b16845290915281208054879290610c68908490611ef7565b909155505060408051878152602081018790526001600160a01b03808a1692600092918716917fc3d58168c5ae7397731d063d5bbf3d657854427343f4c083240f7aacaa2d0f62910160405180910390a4610cc883600089898989611411565b50505050505050565b6001600160a01b038416610cf75760405162461bcd60e51b81526004016104e190611fe8565b8151835114610d185760405162461bcd60e51b81526004016104e190612029565b33610d28816000878787876113fb565b60005b8451811015610dc357838181518110610d4657610d46611f7c565b6020026020010151600080878481518110610d6357610d63611f7c565b602002602001015181526020019081526020016000206000886001600160a01b03166001600160a01b031681526020019081526020016000206000828254610dab9190611ef7565b90915550819050610dbb81611f92565b915050610d2b565b50846001600160a01b031660006001600160a01b0316826001600160a01b03167f4a39dc06d4c0dbc64b70af90fd698a233a518aa5d07e595d983b8c0526c8f7fb8787604051610e14929190612071565b60405180910390a46107958160008787878761156d565b8151835114610e4c5760405162461bcd60e51b81526004016104e190612029565b6001600160a01b038416610e725760405162461bcd60e51b81526004016104e19061209f565b33610e818187878787876113fb565b60005b8451811015610f67576000858281518110610ea157610ea1611f7c565b602002602001015190506000858381518110610ebf57610ebf611f7c565b602090810291909101810151600084815280835260408082206001600160a01b038e168352909352919091205490915081811015610f0f5760405162461bcd60e51b81526004016104e1906120e4565b6000838152602081815260408083206001600160a01b038e8116855292528083208585039055908b16825281208054849290610f4c908490611ef7565b9250508190555050505080610f6090611f92565b9050610e84565b50846001600160a01b0316866001600160a01b0316826001600160a01b03167f4a39dc06d4c0dbc64b70af90fd698a233a518aa5d07e595d983b8c0526c8f7fb8787604051610fb7929190612071565b60405180910390a4610fcd81878787878761156d565b505050505050565b610fdd611628565b6003805460ff60a01b191690557f5db9ee0a495bf2e6ff9c91a7834c1ba4fdd244a5e8aa4e537bd38aeae4b073aa335b6040516001600160a01b03909116815260200160405180910390a1565b600380546001600160a01b038381166001600160a01b0319831681179093556040519116919082907f8be0079c531659141344cd1fd0a4f28419497f9722a3daafe3b4186f6b6457e090600090a35050565b611084610b9b565b6003805460ff60a01b1916600160a01b1790557f62e78cea01bee320cd4e420270b5ea74000d11b0c9f74754ebdbfc544b05a25861100d3390565b816001600160a01b0316836001600160a01b031614156111335760405162461bcd60e51b815260206004820152602960248201527f455243313135353a2073657474696e6720617070726f76616c20737461747573604482015268103337b91039b2b63360b91b60648201526084016104e1565b6001600160a01b03838116600081815260016020908152604080832094871680845294825291829020805460ff191686151590811790915591519182527f17307eab39ab6107e8899845ad3d59bd9653f200f220920489ca2b5937696c31910160405180910390a3505050565b6001600160a01b0384166111c65760405162461bcd60e51b81526004016104e19061209f565b3360006111d2856113b0565b905060006111df856113b0565b90506111ef8389898585896113fb565b6000868152602081815260408083206001600160a01b038c168452909152902054858110156112305760405162461bcd60e51b81526004016104e1906120e4565b6000878152602081815260408083206001600160a01b038d8116855292528083208985039055908a1682528120805488929061126d908490611ef7565b909155505060408051888152602081018890526001600160a01b03808b16928c821692918816917fc3d58168c5ae7397731d063d5bbf3d657854427343f4c083240f7aacaa2d0f62910160405180910390a46112cd848a8a8a8a8a611411565b505050505050505050565b60008072184f03e93ff9f4daa797ed6e38ed64bf6a1f0160401b83106113175772184f03e93ff9f4daa797ed6e38ed64bf6a1f0160401b830492506040015b6d04ee2d6d415b85acef81000000008310611343576d04ee2d6d415b85acef8100000000830492506020015b662386f26fc10000831061136157662386f26fc10000830492506010015b6305f5e1008310611379576305f5e100830492506008015b612710831061138d57612710830492506004015b6064831061139f576064830492506002015b600a831061055c5760010192915050565b604080516001808252818301909252606091600091906020808301908036833701905050905082816000815181106113ea576113ea611f7c565b602090810291909101015292915050565b611403610b9b565b610fcd868686868686611678565b6001600160a01b0384163b15610fcd5760405163f23a6e6160e01b81526001600160a01b0385169063f23a6e6190611455908990899088908890889060040161212e565b6020604051808303816000875af1925050508015611490575060408051601f3d908101601f1916820190925261148d91810190612173565b60015b61153d5761149c612190565b806308c379a014156114d657506114b16121ac565b806114bc57506114d8565b8060405162461bcd60e51b81526004016104e19190611a6d565b505b60405162461bcd60e51b815260206004820152603460248201527f455243313135353a207472616e7366657220746f206e6f6e2d455243313135356044820152732932b1b2b4bb32b91034b6b83632b6b2b73a32b960611b60648201526084016104e1565b6001600160e01b0319811663f23a6e6160e01b14610cc85760405162461bcd60e51b81526004016104e190612236565b6001600160a01b0384163b15610fcd5760405163bc197c8160e01b81526001600160a01b0385169063bc197c81906115b1908990899088908890889060040161227e565b6020604051808303816000875af19250505080156115ec575060408051601f3d908101601f191682019092526115e991810190612173565b60015b6115f85761149c612190565b6001600160e01b0319811663bc197c8160e01b14610cc85760405162461bcd60e51b81526004016104e190612236565b600354600160a01b900460ff166107ac5760405162461bcd60e51b815260206004820152601460248201527314185d5cd8589b194e881b9bdd081c185d5cd95960621b60448201526064016104e1565b6001600160a01b0385166116ff5760005b83518110156116fd578281815181106116a4576116a4611f7c565b6020026020010151600460008684815181106116c2576116c2611f7c565b6020026020010151815260200190815260200160002060008282546116e79190611ef7565b909155506116f6905081611f92565b9050611689565b505b6001600160a01b038416610fcd5760005b8351811015610cc857600084828151811061172d5761172d611f7c565b60200260200101519050600084838151811061174b5761174b611f7c565b60200260200101519050600060046000848152602001908152602001600020549050818110156117ce5760405162461bcd60e51b815260206004820152602860248201527f455243313135353a206275726e20616d6f756e74206578636565647320746f74604482015267616c537570706c7960c01b60648201526084016104e1565b600092835260046020526040909220910390556117ea81611f92565b9050611710565b8280546117fd90611fad565b90600052602060002090601f01602090048101928261181f5760008555611865565b82601f1061183857805160ff1916838001178555611865565b82800160010185558215611865579182015b8281111561186557825182559160200191906001019061184a565b50611871929150611875565b5090565b5b808211156118715760008155600101611876565b80356001600160a01b03811681146118a157600080fd5b919050565b600080604083850312156118b957600080fd5b6118c28361188a565b946020939093013593505050565b6001600160e01b03198116811461057357600080fd5b6000602082840312156118f857600080fd5b8135611903816118d0565b9392505050565b634e487b7160e01b600052604160045260246000fd5b601f8201601f1916810167ffffffffffffffff811182821017156119465761194661190a565b6040525050565b600067ffffffffffffffff8311156119675761196761190a565b60405161197e601f8501601f191660200182611920565b80915083815284848401111561199357600080fd5b83836020830137600060208583010152509392505050565b6000602082840312156119bd57600080fd5b813567ffffffffffffffff8111156119d457600080fd5b8201601f810184136119e557600080fd5b6119f48482356020840161194d565b949350505050565b600060208284031215611a0e57600080fd5b5035919050565b60005b83811015611a30578181015183820152602001611a18565b8381111561074a5750506000910152565b60008151808452611a59816020860160208601611a15565b601f01601f19169290920160200192915050565b6020815260006119036020830184611a41565b60008060408385031215611a9357600080fd5b50508035926020909101359150565b600067ffffffffffffffff821115611abc57611abc61190a565b5060051b60200190565b600082601f830112611ad757600080fd5b81356020611ae482611aa2565b604051611af18282611920565b83815260059390931b8501820192828101915086841115611b1157600080fd5b8286015b84811015611b2c5780358352918301918301611b15565b509695505050505050565b600082601f830112611b4857600080fd5b6119038383356020850161194d565b60008060008060808587031215611b6d57600080fd5b611b768561188a565b9350602085013567ffffffffffffffff80821115611b9357600080fd5b611b9f88838901611ac6565b94506040870135915080821115611bb557600080fd5b611bc188838901611ac6565b93506060870135915080821115611bd757600080fd5b50611be487828801611b37565b91505092959194509250565b600080600080600060a08688031215611c0857600080fd5b611c118661188a565b9450611c1f6020870161188a565b9350604086013567ffffffffffffffff80821115611c3c57600080fd5b611c4889838a01611ac6565b94506060880135915080821115611c5e57600080fd5b611c6a89838a01611ac6565b93506080880135915080821115611c8057600080fd5b50611c8d88828901611b37565b9150509295509295909350565b60008060408385031215611cad57600080fd5b823567ffffffffffffffff80821115611cc557600080fd5b818501915085601f830112611cd957600080fd5b81356020611ce682611aa2565b604051611cf38282611920565b83815260059390931b8501820192828101915089841115611d1357600080fd5b948201945b83861015611d3857611d298661188a565b82529482019490820190611d18565b96505086013592505080821115611d4e57600080fd5b50611d5b85828601611ac6565b9150509250929050565b600081518084526020808501945080840160005b83811015611d9557815187529582019590820190600101611d79565b509495945050505050565b6020815260006119036020830184611d65565b600060208284031215611dc557600080fd5b6119038261188a565b60008060408385031215611de157600080fd5b611dea8361188a565b915060208301358015158114611dff57600080fd5b809150509250929050565b60008060408385031215611e1d57600080fd5b611e268361188a565b9150611e346020840161188a565b90509250929050565b600080600080600060a08688031215611e5557600080fd5b611e5e8661188a565b9450611e6c6020870161188a565b93506040860135925060608601359150608086013567ffffffffffffffff811115611e9657600080fd5b611c8d88828901611b37565b60008351611eb4818460208801611a15565b835190830190611ec8818360208801611a15565b64173539b7b760d91b9101908152600501949350505050565b634e487b7160e01b600052601160045260246000fd5b60008219821115611f0a57611f0a611ee1565b500190565b6000816000190483118215151615611f2957611f29611ee1565b500290565b6020808252602e908201527f455243313135353a2063616c6c6572206973206e6f7420746f6b656e206f776e60408201526d195c881bdc88185c1c1c9bdd995960921b606082015260800190565b634e487b7160e01b600052603260045260246000fd5b6000600019821415611fa657611fa6611ee1565b5060010190565b600181811c90821680611fc157607f821691505b60208210811415611fe257634e487b7160e01b600052602260045260246000fd5b50919050565b60208082526021908201527f455243313135353a206d696e7420746f20746865207a65726f206164647265736040820152607360f81b606082015260800190565b60208082526028908201527f455243313135353a2069647320616e6420616d6f756e7473206c656e677468206040820152670dad2e6dac2e8c6d60c31b606082015260800190565b6040815260006120846040830185611d65565b82810360208401526120968185611d65565b95945050505050565b60208082526025908201527f455243313135353a207472616e7366657220746f20746865207a65726f206164604082015264647265737360d81b606082015260800190565b6020808252602a908201527f455243313135353a20696e73756666696369656e742062616c616e636520666f60408201526939103a3930b739b332b960b11b606082015260800190565b6001600160a01b03868116825285166020820152604081018490526060810183905260a06080820181905260009061216890830184611a41565b979650505050505050565b60006020828403121561218557600080fd5b8151611903816118d0565b600060033d11156121a95760046000803e5060005160e01c5b90565b600060443d10156121ba5790565b6040516003193d81016004833e81513d67ffffffffffffffff81602484011181841117156121ea57505050505090565b82850191508151818111156122025750505050505090565b843d870101602082850101111561221c5750505050505090565b61222b60208286010187611920565b509095945050505050565b60208082526028908201527f455243313135353a204552433131353552656365697665722072656a656374656040820152676420746f6b656e7360c01b606082015260800190565b6001600160a01b0386811682528516602082015260a0604082018190526000906122aa90830186611d65565b82810360608401526122bc8186611d65565b905082810360808401526122d08185611a41565b9897505050505050505056fea26469706673582212203194ff3e384da4085110c0fba9c84ea4a66a6e712379bd499c72c730fd64477d64736f6c634300080b0033697066733a2f2f516d585754597848614565565072586137466f433573517a646e79425474446f7a69545074676d726365587243662f",
  "linkReferences": {},
  "deployedLinkReferences": {}
}