{
  "_format": "hh-sol-artifact-1",
  "contractName": "AwesomeNFT",
  "sourceName": "src/backend/contracts/AwesomeNFT.sol",
  "abi": [
    {
      "inputs": [
        {
          "internalType": "string",
          "name": "_name",
          "type": "string"
        },
        {
          "internalType": "string",
          "name": "_symbol",
          "type": "string"
        },
        {
          "internalType": "string",
          "name": "_uriPrefix",
          "type": "string"
        },
        {
          "internalType": "uint256",
          "name": "_totalNft",
          "type": "uint256"
        }
      ],
      "stateMutability": "nonpayable",
      "type": "constructor"
    },
    {
      "anonymous": false,
      "inputs": [
        {
          "indexed": true,
          "internalType": "address",
          "name": "owner",
          "type": "address"
        },
        {
          "indexed": true,
          "internalType": "address",
          "name": "approved",
          "type": "address"
        },
        {
          "indexed": true,
          "internalType": "uint256",
          "name": "tokenId",
          "type": "uint256"
        }
      ],
      "name": "Approval",
      "type": "event"
    },
    {
      "anonymous": false,
      "inputs": [
        {
          "indexed": true,
          "internalType": "address",
          "name": "owner",
          "type": "address"
        },
        {
          "indexed": true,
          "internalType": "address",
          "name": "operator",
          "type": "address"
        },
        {
          "indexed": false,
          "internalType": "bool",
          "name": "approved",
          "type": "bool"
        }
      ],
      "name": "ApprovalForAll",
      "type": "event"
    },
    {
      "anonymous": false,
      "inputs": [
        {
          "indexed": false,
          "internalType": "uint256",
          "name": "id",
          "type": "uint256"
        },
        {
          "indexed": true,
          "internalType": "address",
          "name": "buyer",
          "type": "address"
        },
        {
          "indexed": false,
          "internalType": "uint256",
          "name": "cost",
          "type": "uint256"
        },
        {
          "indexed": true,
          "internalType": "string",
          "name": "tokenURI",
          "type": "string"
        },
        {
          "indexed": false,
          "internalType": "uint256",
          "name": "timestamp",
          "type": "uint256"
        }
      ],
      "name": "Minted",
      "type": "event"
    },
    {
      "anonymous": false,
      "inputs": [
        {
          "indexed": true,
          "internalType": "address",
          "name": "previousOwner",
          "type": "address"
        },
        {
          "indexed": true,
          "internalType": "address",
          "name": "newOwner",
          "type": "address"
        }
      ],
      "name": "OwnershipTransferred",
      "type": "event"
    },
    {
      "anonymous": false,
      "inputs": [
        {
          "indexed": true,
          "internalType": "uint256",
          "name": "supply",
          "type": "uint256"
        }
      ],
      "name": "SupplyChanged",
      "type": "event"
    },
    {
      "anonymous": false,
      "inputs": [
        {
          "indexed": true,
          "internalType": "address",
          "name": "from",
          "type": "address"
        },
        {
          "indexed": true,
          "internalType": "address",
          "name": "to",
          "type": "address"
        },
        {
          "indexed": true,
          "internalType": "uint256",
          "name": "tokenId",
          "type": "uint256"
        }
      ],
      "name": "Transfer",
      "type": "event"
    },
    {
      "inputs": [
        {
          "internalType": "uint256",
          "name": "_newSupply",
          "type": "uint256"
        }
      ],
      "name": "_setTotalSupply",
      "outputs": [],
      "stateMutability": "nonpayable",
      "type": "function"
    },
    {
      "inputs": [
        {
          "internalType": "address",
          "name": "to",
          "type": "address"
        },
        {
          "internalType": "uint256",
          "name": "tokenId",
          "type": "uint256"
        }
      ],
      "name": "approve",
      "outputs": [],
      "stateMutability": "nonpayable",
      "type": "function"
    },
    {
      "inputs": [],
      "name": "availableTokenCount",
      "outputs": [
        {
          "internalType": "uint256",
          "name": "",
          "type": "uint256"
        }
      ],
      "stateMutability": "view",
      "type": "function"
    },
    {
      "inputs": [
        {
          "internalType": "address",
          "name": "owner",
          "type": "address"
        }
      ],
      "name": "balanceOf",
      "outputs": [
        {
          "internalType": "uint256",
          "name": "",
          "type": "uint256"
        }
      ],
      "stateMutability": "view",
      "type": "function"
    },
    {
      "inputs": [],
      "name": "cost",
      "outputs": [
        {
          "internalType": "uint256",
          "name": "",
          "type": "uint256"
        }
      ],
      "stateMutability": "view",
      "type": "function"
    },
    {
      "inputs": [],
      "name": "currentSupply",
      "outputs": [
        {
          "internalType": "uint256",
          "name": "",
          "type": "uint256"
        }
      ],
      "stateMutability": "view",
      "type": "function"
    },
    {
      "inputs": [
        {
          "internalType": "uint256",
          "name": "tokenId",
          "type": "uint256"
        }
      ],
      "name": "getApproved",
      "outputs": [
        {
          "internalType": "address",
          "name": "",
          "type": "address"
        }
      ],
      "stateMutability": "view",
      "type": "function"
    },
    {
      "inputs": [],
      "name": "getBalance",
      "outputs": [
        {
          "internalType": "uint256",
          "name": "",
          "type": "uint256"
        }
      ],
      "stateMutability": "view",
      "type": "function"
    },
    {
      "inputs": [],
      "name": "getMintedNFTs",
      "outputs": [
        {
          "components": [
            {
              "internalType": "uint256",
              "name": "id",
              "type": "uint256"
            },
            {
              "internalType": "address",
              "name": "buyer",
              "type": "address"
            },
            {
              "internalType": "uint256",
              "name": "cost",
              "type": "uint256"
            },
            {
              "internalType": "string",
              "name": "tokenUri",
              "type": "string"
            },
            {
              "internalType": "uint256",
              "name": "timestamp",
              "type": "uint256"
            }
          ],
          "internalType": "struct AwesomeNFT.MintedStruct[]",
          "name": "",
          "type": "tuple[]"
        }
      ],
      "stateMutability": "view",
      "type": "function"
    },
    {
      "inputs": [
        {
          "internalType": "address",
          "name": "owner",
          "type": "address"
        },
        {
          "internalType": "address",
          "name": "operator",
          "type": "address"
        }
      ],
      "name": "isApprovedForAll",
      "outputs": [
        {
          "internalType": "bool",
          "name": "",
          "type": "bool"
        }
      ],
      "stateMutability": "view",
      "type": "function"
    },
    {
      "inputs": [],
      "name": "mint",
      "outputs": [],
      "stateMutability": "payable",
      "type": "function"
    },
    {
      "inputs": [
        {
          "internalType": "uint256",
          "name": "",
          "type": "uint256"
        }
      ],
      "name": "minted",
      "outputs": [
        {
          "internalType": "uint256",
          "name": "id",
          "type": "uint256"
        },
        {
          "internalType": "address",
          "name": "buyer",
          "type": "address"
        },
        {
          "internalType": "uint256",
          "name": "cost",
          "type": "uint256"
        },
        {
          "internalType": "string",
          "name": "tokenUri",
          "type": "string"
        },
        {
          "internalType": "uint256",
          "name": "timestamp",
          "type": "uint256"
        }
      ],
      "stateMutability": "view",
      "type": "function"
    },
    {
      "inputs": [],
      "name": "name",
      "outputs": [
        {
          "internalType": "string",
          "name": "",
          "type": "string"
        }
      ],
      "stateMutability": "view",
      "type": "function"
    },
    {
      "inputs": [],
      "name": "owner",
      "outputs": [
        {
          "internalType": "address",
          "name": "",
          "type": "address"
        }
      ],
      "stateMutability": "view",
      "type": "function"
    },
    {
      "inputs": [
        {
          "internalType": "uint256",
          "name": "tokenId",
          "type": "uint256"
        }
      ],
      "name": "ownerOf",
      "outputs": [
        {
          "internalType": "address",
          "name": "",
          "type": "address"
        }
      ],
      "stateMutability": "view",
      "type": "function"
    },
    {
      "inputs": [],
      "name": "paused",
      "outputs": [
        {
          "internalType": "bool",
          "name": "",
          "type": "bool"
        }
      ],
      "stateMutability": "view",
      "type": "function"
    },
    {
      "inputs": [],
      "name": "renounceOwnership",
      "outputs": [],
      "stateMutability": "nonpayable",
      "type": "function"
    },
    {
      "inputs": [
        {
          "internalType": "address",
          "name": "from",
          "type": "address"
        },
        {
          "internalType": "address",
          "name": "to",
          "type": "address"
        },
        {
          "internalType": "uint256",
          "name": "tokenId",
          "type": "uint256"
        }
      ],
      "name": "safeTransferFrom",
      "outputs": [],
      "stateMutability": "nonpayable",
      "type": "function"
    },
    {
      "inputs": [
        {
          "internalType": "address",
          "name": "from",
          "type": "address"
        },
        {
          "internalType": "address",
          "name": "to",
          "type": "address"
        },
        {
          "internalType": "uint256",
          "name": "tokenId",
          "type": "uint256"
        },
        {
          "internalType": "bytes",
          "name": "data",
          "type": "bytes"
        }
      ],
      "name": "safeTransferFrom",
      "outputs": [],
      "stateMutability": "nonpayable",
      "type": "function"
    },
    {
      "inputs": [
        {
          "internalType": "address",
          "name": "operator",
          "type": "address"
        },
        {
          "internalType": "bool",
          "name": "approved",
          "type": "bool"
        }
      ],
      "name": "setApprovalForAll",
      "outputs": [],
      "stateMutability": "nonpayable",
      "type": "function"
    },
    {
      "inputs": [
        {
          "internalType": "string",
          "name": "_uriPrefix",
          "type": "string"
        }
      ],
      "name": "setBaseURI",
      "outputs": [],
      "stateMutability": "nonpayable",
      "type": "function"
    },
    {
      "inputs": [
        {
          "internalType": "bool",
          "name": "_state",
          "type": "bool"
        }
      ],
      "name": "setPause",
      "outputs": [],
      "stateMutability": "nonpayable",
      "type": "function"
    },
    {
      "inputs": [
        {
          "internalType": "bytes4",
          "name": "interfaceId",
          "type": "bytes4"
        }
      ],
      "name": "supportsInterface",
      "outputs": [
        {
          "internalType": "bool",
          "name": "",
          "type": "bool"
        }
      ],
      "stateMutability": "view",
      "type": "function"
    },
    {
      "inputs": [],
      "name": "symbol",
      "outputs": [
        {
          "internalType": "string",
          "name": "",
          "type": "string"
        }
      ],
      "stateMutability": "view",
      "type": "function"
    },
    {
      "inputs": [],
      "name": "tokenCount",
      "outputs": [
        {
          "internalType": "uint256",
          "name": "",
          "type": "uint256"
        }
      ],
      "stateMutability": "view",
      "type": "function"
    },
    {
      "inputs": [
        {
          "internalType": "uint256",
          "name": "_tokenId",
          "type": "uint256"
        }
      ],
      "name": "tokenURI",
      "outputs": [
        {
          "internalType": "string",
          "name": "",
          "type": "string"
        }
      ],
      "stateMutability": "view",
      "type": "function"
    },
    {
      "inputs": [],
      "name": "totalSupply",
      "outputs": [
        {
          "internalType": "uint256",
          "name": "",
          "type": "uint256"
        }
      ],
      "stateMutability": "view",
      "type": "function"
    },
    {
      "inputs": [
        {
          "internalType": "address",
          "name": "from",
          "type": "address"
        },
        {
          "internalType": "address",
          "name": "to",
          "type": "address"
        },
        {
          "internalType": "uint256",
          "name": "tokenId",
          "type": "uint256"
        }
      ],
      "name": "transferFrom",
      "outputs": [],
      "stateMutability": "nonpayable",
      "type": "function"
    },
    {
      "inputs": [
        {
          "internalType": "address",
          "name": "newOwner",
          "type": "address"
        }
      ],
      "name": "transferOwnership",
      "outputs": [],
      "stateMutability": "nonpayable",
      "type": "function"
    },
    {
      "inputs": [],
      "name": "uriPrefix",
      "outputs": [
        {
          "internalType": "string",
          "name": "",
          "type": "string"
        }
      ],
      "stateMutability": "view",
      "type": "function"
    },
    {
      "inputs": [],
      "name": "uriSuffix",
      "outputs": [
        {
          "internalType": "string",
          "name": "",
          "type": "string"
        }
      ],
      "stateMutability": "view",
      "type": "function"
    }
  ],
  "bytecode": "0x6000600c5560c06040526005608081905264173539b7b760d91b60a09081526200002d91600e9190620001ba565b5066038d7ea4c68000600f556010805460ff191690553480156200005057600080fd5b50604051620027043803806200270483398101604081905262000073916200032d565b806001818686816000908051906020019062000091929190620001ba565b508051620000a7906001906020840190620001ba565b505050620000c4620000be620000e060201b60201c565b620000e4565b600955600b5550620000d68262000136565b5050505062000403565b3390565b600780546001600160a01b038381166001600160a01b0319831681179093556040519116919082907f8be0079c531659141344cd1fd0a4f28419497f9722a3daafe3b4186f6b6457e090600090a35050565b6200014062000159565b80516200015590600d906020840190620001ba565b5050565b6007546001600160a01b03163314620001b85760405162461bcd60e51b815260206004820181905260248201527f4f776e61626c653a2063616c6c6572206973206e6f7420746865206f776e6572604482015260640160405180910390fd5b565b828054620001c890620003c6565b90600052602060002090601f016020900481019282620001ec576000855562000237565b82601f106200020757805160ff191683800117855562000237565b8280016001018555821562000237579182015b82811115620002375782518255916020019190600101906200021a565b506200024592915062000249565b5090565b5b808211156200024557600081556001016200024a565b634e487b7160e01b600052604160045260246000fd5b600082601f8301126200028857600080fd5b81516001600160401b0380821115620002a557620002a562000260565b604051601f8301601f19908116603f01168101908282118183101715620002d057620002d062000260565b81604052838152602092508683858801011115620002ed57600080fd5b600091505b83821015620003115785820183015181830184015290820190620002f2565b83821115620003235760008385830101525b9695505050505050565b600080600080608085870312156200034457600080fd5b84516001600160401b03808211156200035c57600080fd5b6200036a8883890162000276565b955060208701519150808211156200038157600080fd5b6200038f8883890162000276565b94506040870151915080821115620003a657600080fd5b50620003b58782880162000276565b606096909601519497939650505050565b600181811c90821680620003db57607f821691505b60208210811415620003fd57634e487b7160e01b600052602260045260246000fd5b50919050565b6122f180620004136000396000f3fe6080604052600436106101d85760003560e01c80636352211e116101025780639f181b5e11610095578063c87b56dd11610064578063c87b56dd1461050e578063e14ca3531461052e578063e985e9c514610543578063f2fde38b1461058c57600080fd5b80639f181b5e14610499578063a22cb465146104ae578063b88d4fde146104ce578063bedb86fb146104ee57600080fd5b806377bf44ea116100d157806377bf44ea146104135780637dc0bf3f146104355780638da5cb5b1461046657806395d89b411461048457600080fd5b80636352211e146103a857806370a08231146103c8578063715018a6146103e8578063771282f6146103fd57600080fd5b806313faede61161017a5780635503a0e8116101495780635503a0e81461034457806355f804b3146103595780635c975abb1461037957806362b99ad41461039357600080fd5b806313faede6146102d957806318160ddd146102ef57806323b872dd1461030457806342842e0e1461032457600080fd5b8063081812fc116101b6578063081812fc14610256578063095ea7b31461028e57806312065fe0146102ae5780631249c58b146102d157600080fd5b8063017838eb146101dd57806301ffc9a7146101ff57806306fdde0314610234575b600080fd5b3480156101e957600080fd5b506101fd6101f8366004611bcf565b6105ac565b005b34801561020b57600080fd5b5061021f61021a366004611bfe565b6105c0565b60405190151581526020015b60405180910390f35b34801561024057600080fd5b50610249610612565b60405161022b9190611c7a565b34801561026257600080fd5b50610276610271366004611bcf565b6106a4565b6040516001600160a01b03909116815260200161022b565b34801561029a57600080fd5b506101fd6102a9366004611ca4565b6106cb565b3480156102ba57600080fd5b506102c36107e6565b60405190815260200161022b565b6101fd6107f5565b3480156102e557600080fd5b506102c3600f5481565b3480156102fb57600080fd5b506009546102c3565b34801561031057600080fd5b506101fd61031f366004611cce565b610a30565b34801561033057600080fd5b506101fd61033f366004611cce565b610a61565b34801561035057600080fd5b50610249610a7c565b34801561036557600080fd5b506101fd610374366004611d96565b610b0a565b34801561038557600080fd5b5060105461021f9060ff1681565b34801561039f57600080fd5b50610249610b29565b3480156103b457600080fd5b506102766103c3366004611bcf565b610b36565b3480156103d457600080fd5b506102c36103e3366004611ddf565b610b96565b3480156103f457600080fd5b506101fd610c1c565b34801561040957600080fd5b506102c3600c5481565b34801561041f57600080fd5b50610428610c30565b60405161022b9190611dfa565b34801561044157600080fd5b50610455610450366004611bcf565b610d56565b60405161022b959493929190611e9d565b34801561047257600080fd5b506007546001600160a01b0316610276565b34801561049057600080fd5b50610249610e2e565b3480156104a557600080fd5b506102c3610e3d565b3480156104ba57600080fd5b506101fd6104c9366004611eec565b610e4d565b3480156104da57600080fd5b506101fd6104e9366004611f1f565b610e58565b3480156104fa57600080fd5b506101fd610509366004611f9b565b610e90565b34801561051a57600080fd5b50610249610529366004611bcf565b610eab565b34801561053a57600080fd5b506102c3610f36565b34801561054f57600080fd5b5061021f61055e366004611fb6565b6001600160a01b03918216600090815260056020908152604080832093909416825291909152205460ff1690565b34801561059857600080fd5b506101fd6105a7366004611ddf565b610f4d565b6105b4610fc3565b6105bd8161101d565b50565b60006001600160e01b031982166380ac58cd60e01b14806105f157506001600160e01b03198216635b5e139f60e01b145b8061060c57506301ffc9a760e01b6001600160e01b03198316145b92915050565b60606000805461062190611fe0565b80601f016020809104026020016040519081016040528092919081815260200182805461064d90611fe0565b801561069a5780601f1061066f5761010080835404028352916020019161069a565b820191906000526020600020905b81548152906001019060200180831161067d57829003601f168201915b5050505050905090565b60006106af826110cb565b506000908152600460205260409020546001600160a01b031690565b60006106d682610b36565b9050806001600160a01b0316836001600160a01b031614156107495760405162461bcd60e51b815260206004820152602160248201527f4552433732313a20617070726f76616c20746f2063757272656e74206f776e656044820152603960f91b60648201526084015b60405180910390fd5b336001600160a01b03821614806107655750610765813361055e565b6107d75760405162461bcd60e51b815260206004820152603d60248201527f4552433732313a20617070726f76652063616c6c6572206973206e6f7420746f60448201527f6b656e206f776e6572206f7220617070726f76656420666f7220616c6c0000006064820152608401610740565b6107e1838361112a565b505050565b60006107f0610fc3565b504790565b60006107ff610f36565b116108475760405162461bcd60e51b81526020600482015260186024820152774e6f206d6f726520746f6b656e7320617661696c61626c6560401b6044820152606401610740565b60105460ff161561089a5760405162461bcd60e51b815260206004820152601760248201527f4e46547320756e646572206d61696e74656e616e6365210000000000000000006044820152606401610740565b600f543410156108ec5760405162461bcd60e51b815260206004820152601a60248201527f457468657220746f6f206c6f7720666f72206d696e74696e67210000000000006044820152606401610740565b60006108f6611198565b9050610902338261132b565b600c805490600061091283612031565b919050555060116040518060a00160405280838152602001336001600160a01b0316815260200134815260200161095061094b85611345565b6113e2565b81524260209182015282546001808201855560009485529382902083516005909202019081558282015193810180546001600160a01b0319166001600160a01b039095169490941790935560408201516002840155606082015180519293926109bf9260038501920190611b36565b506080820151816004015550506109d861094b82611345565b6040516109e5919061204c565b6040805191829003822083835234602084015242838301529051909133917fb075618f3bda741d5eae1b13373e9ed95e201c619fce29af0642c61a1c491c089181900360600190a350565b610a3a338261143b565b610a565760405162461bcd60e51b815260040161074090612068565b6107e18383836114ba565b6107e183838360405180602001604052806000815250610e58565b600e8054610a8990611fe0565b80601f0160208091040260200160405190810160405280929190818152602001828054610ab590611fe0565b8015610b025780601f10610ad757610100808354040283529160200191610b02565b820191906000526020600020905b815481529060010190602001808311610ae557829003601f168201915b505050505081565b610b12610fc3565b8051610b2590600d906020840190611b36565b5050565b600d8054610a8990611fe0565b6000818152600260205260408120546001600160a01b03168061060c5760405162461bcd60e51b8152602060048201526018602482015277115490cdcc8c4e881a5b9d985b1a59081d1bdad95b88125160421b6044820152606401610740565b60006001600160a01b038216610c005760405162461bcd60e51b815260206004820152602960248201527f4552433732313a2061646472657373207a65726f206973206e6f7420612076616044820152683634b21037bbb732b960b91b6064820152608401610740565b506001600160a01b031660009081526003602052604090205490565b610c24610fc3565b610c2e600061161e565b565b60606011805480602002602001604051908101604052809291908181526020016000905b82821015610d4d5760008481526020908190206040805160a081018252600586029092018054835260018101546001600160a01b031693830193909352600283015490820152600382018054919291606084019190610cb290611fe0565b80601f0160208091040260200160405190810160405280929190818152602001828054610cde90611fe0565b8015610d2b5780601f10610d0057610100808354040283529160200191610d2b565b820191906000526020600020905b815481529060010190602001808311610d0e57829003601f168201915b5050505050815260200160048201548152505081526020019060010190610c54565b50505050905090565b60118181548110610d6657600080fd5b600091825260209091206005909102018054600182015460028301546003840180549395506001600160a01b03909216939092909190610da590611fe0565b80601f0160208091040260200160405190810160405280929190818152602001828054610dd190611fe0565b8015610e1e5780601f10610df357610100808354040283529160200191610e1e565b820191906000526020600020905b815481529060010190602001808311610e0157829003601f168201915b5050505050908060040154905085565b60606001805461062190611fe0565b6000610e4860085490565b905090565b610b25338383611670565b610e62338361143b565b610e7e5760405162461bcd60e51b815260040161074090612068565b610e8a8484848461173f565b50505050565b610e98610fc3565b6010805460ff1916911515919091179055565b6000818152600260205260409020546060906001600160a01b0316610f2a5760405162461bcd60e51b815260206004820152602f60248201527f4552433732314d657461646174613a2055524920717565727920666f72206e6f60448201526e3732bc34b9ba32b73a103a37b5b2b760891b6064820152608401610740565b61060c61094b83611345565b6000610f40610e3d565b600954610e4891906120b5565b610f55610fc3565b6001600160a01b038116610fba5760405162461bcd60e51b815260206004820152602660248201527f4f776e61626c653a206e6577206f776e657220697320746865207a65726f206160448201526564647265737360d01b6064820152608401610740565b6105bd8161161e565b6007546001600160a01b03163314610c2e5760405162461bcd60e51b815260206004820181905260248201527f4f776e61626c653a2063616c6c6572206973206e6f7420746865206f776e65726044820152606401610740565b611025610e3d565b81116110995760405162461bcd60e51b815260206004820152603960248201527f43616e2774207365742074686520737570706c7920746f206c6573732074686160448201527f6e207468652063757272656e7420746f6b656e20636f756e74000000000000006064820152608401610740565b6009819055806040517ff71f9c3841c0bab7774017ffe585aeab36b5438d148506067901d47c5fa6f7e990600090a250565b6000818152600260205260409020546001600160a01b03166105bd5760405162461bcd60e51b8152602060048201526018602482015277115490cdcc8c4e881a5b9d985b1a59081d1bdad95b88125160421b6044820152606401610740565b600081815260046020526040902080546001600160a01b0319166001600160a01b038416908117909155819061115f82610b36565b6001600160a01b03167f8c5be1e5ebec7d5bd14f71427d1e84f3dd0314c0f7b2291e5b200ac8c7c3b92560405160405180910390a45050565b6000806111a3610f36565b116111eb5760405162461bcd60e51b81526020600482015260186024820152774e6f206d6f726520746f6b656e7320617661696c61626c6560401b6044820152606401610740565b60006111f5610e3d565b60095461120291906120b5565b6040516bffffffffffffffffffffffff1933606090811b8216602084015241901b166034820152446048820152456068820152426088820152909150600090829060a8016040516020818303038152906040528051906020012060001c61126991906120cc565b6000818152600a602052604081205491925090611287575080611298565b506000818152600a60205260409020545b600a60006112a76001866120b5565b815260200190815260200160002054600014156112dd576112c96001846120b5565b6000838152600a602052604090205561130d565b600a60006112ec6001866120b5565b81526020808201929092526040908101600090812054858252600a90935220555b611315611772565b50600b5461132390826120ee565b935050505090565b610b25828260405180602001604052806000815250611793565b60606000611352836117c6565b600101905060008167ffffffffffffffff81111561137257611372611d0a565b6040519080825280601f01601f19166020018201604052801561139c576020820181803683370190505b5090508181016020015b600019016f181899199a1a9b1b9c1cb0b131b232b360811b600a86061a8153600a85049450846113d5576113da565b6113a6565b509392505050565b606060006113ee61189e565b5111611409576040518060200160405280600081525061060c565b61141161189e565b82600e60405160200161142693929190612106565b60405160208183030381529060405292915050565b60008061144783610b36565b9050806001600160a01b0316846001600160a01b0316148061148e57506001600160a01b0380821660009081526005602090815260408083209388168352929052205460ff165b806114b25750836001600160a01b03166114a7846106a4565b6001600160a01b0316145b949350505050565b826001600160a01b03166114cd82610b36565b6001600160a01b0316146114f35760405162461bcd60e51b8152600401610740906121ca565b6001600160a01b0382166115555760405162461bcd60e51b8152602060048201526024808201527f4552433732313a207472616e7366657220746f20746865207a65726f206164646044820152637265737360e01b6064820152608401610740565b826001600160a01b031661156882610b36565b6001600160a01b03161461158e5760405162461bcd60e51b8152600401610740906121ca565b600081815260046020908152604080832080546001600160a01b03199081169091556001600160a01b0387811680865260038552838620805460001901905590871680865283862080546001019055868652600290945282852080549092168417909155905184937fddf252ad1be2c89b69c2b068fc378daa952ba7f163c4a11628f55a4df523b3ef91a4505050565b600780546001600160a01b038381166001600160a01b0319831681179093556040519116919082907f8be0079c531659141344cd1fd0a4f28419497f9722a3daafe3b4186f6b6457e090600090a35050565b816001600160a01b0316836001600160a01b031614156116d25760405162461bcd60e51b815260206004820152601960248201527f4552433732313a20617070726f766520746f2063616c6c6572000000000000006044820152606401610740565b6001600160a01b03838116600081815260056020908152604080832094871680845294825291829020805460ff191686151590811790915591519182527f17307eab39ab6107e8899845ad3d59bd9653f200f220920489ca2b5937696c31910160405180910390a3505050565b61174a8484846114ba565b611756848484846118ad565b610e8a5760405162461bcd60e51b81526004016107409061220f565b60008061177e60085490565b905061178e600880546001019055565b919050565b61179d83836119ab565b6117aa60008484846118ad565b6107e15760405162461bcd60e51b81526004016107409061220f565b60008072184f03e93ff9f4daa797ed6e38ed64bf6a1f0160401b83106118055772184f03e93ff9f4daa797ed6e38ed64bf6a1f0160401b830492506040015b6d04ee2d6d415b85acef81000000008310611831576d04ee2d6d415b85acef8100000000830492506020015b662386f26fc10000831061184f57662386f26fc10000830492506010015b6305f5e1008310611867576305f5e100830492506008015b612710831061187b57612710830492506004015b6064831061188d576064830492506002015b600a831061060c5760010192915050565b6060600d805461062190611fe0565b60006001600160a01b0384163b156119a057604051630a85bd0160e11b81526001600160a01b0385169063150b7a02906118f1903390899088908890600401612261565b6020604051808303816000875af192505050801561192c575060408051601f3d908101601f191682019092526119299181019061229e565b60015b611986573d80801561195a576040519150601f19603f3d011682016040523d82523d6000602084013e61195f565b606091505b50805161197e5760405162461bcd60e51b81526004016107409061220f565b805181602001fd5b6001600160e01b031916630a85bd0160e11b1490506114b2565b506001949350505050565b6001600160a01b038216611a015760405162461bcd60e51b815260206004820181905260248201527f4552433732313a206d696e7420746f20746865207a65726f20616464726573736044820152606401610740565b6000818152600260205260409020546001600160a01b031615611a665760405162461bcd60e51b815260206004820152601c60248201527f4552433732313a20746f6b656e20616c7265616479206d696e746564000000006044820152606401610740565b6000818152600260205260409020546001600160a01b031615611acb5760405162461bcd60e51b815260206004820152601c60248201527f4552433732313a20746f6b656e20616c7265616479206d696e746564000000006044820152606401610740565b6001600160a01b038216600081815260036020908152604080832080546001019055848352600290915280822080546001600160a01b0319168417905551839291907fddf252ad1be2c89b69c2b068fc378daa952ba7f163c4a11628f55a4df523b3ef908290a45050565b828054611b4290611fe0565b90600052602060002090601f016020900481019282611b645760008555611baa565b82601f10611b7d57805160ff1916838001178555611baa565b82800160010185558215611baa579182015b82811115611baa578251825591602001919060010190611b8f565b50611bb6929150611bba565b5090565b5b80821115611bb65760008155600101611bbb565b600060208284031215611be157600080fd5b5035919050565b6001600160e01b0319811681146105bd57600080fd5b600060208284031215611c1057600080fd5b8135611c1b81611be8565b9392505050565b60005b83811015611c3d578181015183820152602001611c25565b83811115610e8a5750506000910152565b60008151808452611c66816020860160208601611c22565b601f01601f19169290920160200192915050565b602081526000611c1b6020830184611c4e565b80356001600160a01b038116811461178e57600080fd5b60008060408385031215611cb757600080fd5b611cc083611c8d565b946020939093013593505050565b600080600060608486031215611ce357600080fd5b611cec84611c8d565b9250611cfa60208501611c8d565b9150604084013590509250925092565b634e487b7160e01b600052604160045260246000fd5b600067ffffffffffffffff80841115611d3b57611d3b611d0a565b604051601f8501601f19908116603f01168101908282118183101715611d6357611d63611d0a565b81604052809350858152868686011115611d7c57600080fd5b858560208301376000602087830101525050509392505050565b600060208284031215611da857600080fd5b813567ffffffffffffffff811115611dbf57600080fd5b8201601f81018413611dd057600080fd5b6114b284823560208401611d20565b600060208284031215611df157600080fd5b611c1b82611c8d565b60006020808301818452808551808352604092508286019150828160051b87010184880160005b83811015611e8f57888303603f19018552815180518452878101516001600160a01b031688850152868101518785015260608082015160a08287018190529190611e6d83880182611c4e565b6080948501519790940196909652505094870194925090860190600101611e21565b509098975050505050505050565b85815260018060a01b038516602082015283604082015260a060608201526000611eca60a0830185611c4e565b90508260808301529695505050505050565b8035801515811461178e57600080fd5b60008060408385031215611eff57600080fd5b611f0883611c8d565b9150611f1660208401611edc565b90509250929050565b60008060008060808587031215611f3557600080fd5b611f3e85611c8d565b9350611f4c60208601611c8d565b925060408501359150606085013567ffffffffffffffff811115611f6f57600080fd5b8501601f81018713611f8057600080fd5b611f8f87823560208401611d20565b91505092959194509250565b600060208284031215611fad57600080fd5b611c1b82611edc565b60008060408385031215611fc957600080fd5b611fd283611c8d565b9150611f1660208401611c8d565b600181811c90821680611ff457607f821691505b6020821081141561201557634e487b7160e01b600052602260045260246000fd5b50919050565b634e487b7160e01b600052601160045260246000fd5b60006000198214156120455761204561201b565b5060010190565b6000825161205e818460208701611c22565b9190910192915050565b6020808252602d908201527f4552433732313a2063616c6c6572206973206e6f7420746f6b656e206f776e6560408201526c1c881bdc88185c1c1c9bdd9959609a1b606082015260800190565b6000828210156120c7576120c761201b565b500390565b6000826120e957634e487b7160e01b600052601260045260246000fd5b500690565b600082198211156121015761210161201b565b500190565b6000845160206121198285838a01611c22565b85519184019161212c8184848a01611c22565b8554920191600090600181811c908083168061214957607f831692505b85831081141561216757634e487b7160e01b85526022600452602485fd5b80801561217b576001811461218c576121b9565b60ff198516885283880195506121b9565b60008b81526020902060005b858110156121b15781548a820152908401908801612198565b505083880195505b50939b9a5050505050505050505050565b60208082526025908201527f4552433732313a207472616e736665722066726f6d20696e636f72726563742060408201526437bbb732b960d91b606082015260800190565b60208082526032908201527f4552433732313a207472616e7366657220746f206e6f6e20455243373231526560408201527131b2b4bb32b91034b6b83632b6b2b73a32b960711b606082015260800190565b6001600160a01b038581168252841660208201526040810183905260806060820181905260009061229490830184611c4e565b9695505050505050565b6000602082840312156122b057600080fd5b8151611c1b81611be856fea2646970667358221220492a172efaea567ad279c234c21d6dcfd2b2ec65dee02fe04f7ca4e013286d6b64736f6c634300080b0033",
  "linkReferences": {},
  "deployedLinkReferences": {}
}