{
  "_format": "hh-sol-artifact-1",
  "contractName": "AwesomeNFT",
  "sourceName": "src/backend/contracts/AwesomeNFT.sol",
  "abi": [
    {
      "inputs": [
        {
          "internalType": "string",
          "name": "_name",
          "type": "string"
        },
        {
          "internalType": "string",
          "name": "_symbol",
          "type": "string"
        },
        {
          "internalType": "string",
          "name": "_uriPrefix",
          "type": "string"
        },
        {
          "internalType": "uint256",
          "name": "_totalNft",
          "type": "uint256"
        }
      ],
      "stateMutability": "nonpayable",
      "type": "constructor"
    },
    {
      "anonymous": false,
      "inputs": [
        {
          "indexed": true,
          "internalType": "address",
          "name": "owner",
          "type": "address"
        },
        {
          "indexed": true,
          "internalType": "address",
          "name": "approved",
          "type": "address"
        },
        {
          "indexed": true,
          "internalType": "uint256",
          "name": "tokenId",
          "type": "uint256"
        }
      ],
      "name": "Approval",
      "type": "event"
    },
    {
      "anonymous": false,
      "inputs": [
        {
          "indexed": true,
          "internalType": "address",
          "name": "owner",
          "type": "address"
        },
        {
          "indexed": true,
          "internalType": "address",
          "name": "operator",
          "type": "address"
        },
        {
          "indexed": false,
          "internalType": "bool",
          "name": "approved",
          "type": "bool"
        }
      ],
      "name": "ApprovalForAll",
      "type": "event"
    },
    {
      "anonymous": false,
      "inputs": [
        {
          "indexed": false,
          "internalType": "uint256",
          "name": "id",
          "type": "uint256"
        },
        {
          "indexed": true,
          "internalType": "address",
          "name": "buyer",
          "type": "address"
        },
        {
          "indexed": false,
          "internalType": "uint256",
          "name": "cost",
          "type": "uint256"
        },
        {
          "indexed": true,
          "internalType": "string",
          "name": "tokenURI",
          "type": "string"
        },
        {
          "indexed": false,
          "internalType": "uint256",
          "name": "timestamp",
          "type": "uint256"
        }
      ],
      "name": "Minted",
      "type": "event"
    },
    {
      "anonymous": false,
      "inputs": [
        {
          "indexed": true,
          "internalType": "address",
          "name": "previousOwner",
          "type": "address"
        },
        {
          "indexed": true,
          "internalType": "address",
          "name": "newOwner",
          "type": "address"
        }
      ],
      "name": "OwnershipTransferred",
      "type": "event"
    },
    {
      "anonymous": false,
      "inputs": [
        {
          "indexed": true,
          "internalType": "address",
          "name": "from",
          "type": "address"
        },
        {
          "indexed": true,
          "internalType": "address",
          "name": "to",
          "type": "address"
        },
        {
          "indexed": true,
          "internalType": "uint256",
          "name": "tokenId",
          "type": "uint256"
        }
      ],
      "name": "Transfer",
      "type": "event"
    },
    {
      "inputs": [
        {
          "internalType": "address",
          "name": "to",
          "type": "address"
        },
        {
          "internalType": "uint256",
          "name": "tokenId",
          "type": "uint256"
        }
      ],
      "name": "approve",
      "outputs": [],
      "stateMutability": "nonpayable",
      "type": "function"
    },
    {
      "inputs": [
        {
          "internalType": "address",
          "name": "owner",
          "type": "address"
        }
      ],
      "name": "balanceOf",
      "outputs": [
        {
          "internalType": "uint256",
          "name": "",
          "type": "uint256"
        }
      ],
      "stateMutability": "view",
      "type": "function"
    },
    {
      "inputs": [],
      "name": "cost",
      "outputs": [
        {
          "internalType": "uint256",
          "name": "",
          "type": "uint256"
        }
      ],
      "stateMutability": "view",
      "type": "function"
    },
    {
      "inputs": [
        {
          "internalType": "uint256",
          "name": "tokenId",
          "type": "uint256"
        }
      ],
      "name": "getApproved",
      "outputs": [
        {
          "internalType": "address",
          "name": "",
          "type": "address"
        }
      ],
      "stateMutability": "view",
      "type": "function"
    },
    {
      "inputs": [],
      "name": "getBalance",
      "outputs": [
        {
          "internalType": "uint256",
          "name": "",
          "type": "uint256"
        }
      ],
      "stateMutability": "view",
      "type": "function"
    },
    {
      "inputs": [],
      "name": "getMintedNFTs",
      "outputs": [
        {
          "components": [
            {
              "internalType": "uint256",
              "name": "id",
              "type": "uint256"
            },
            {
              "internalType": "address",
              "name": "buyer",
              "type": "address"
            },
            {
              "internalType": "uint256",
              "name": "cost",
              "type": "uint256"
            },
            {
              "internalType": "string",
              "name": "tokenUri",
              "type": "string"
            },
            {
              "internalType": "uint256",
              "name": "timestamp",
              "type": "uint256"
            }
          ],
          "internalType": "struct AwesomeNFT.MintedStruct[]",
          "name": "",
          "type": "tuple[]"
        }
      ],
      "stateMutability": "view",
      "type": "function"
    },
    {
      "inputs": [
        {
          "internalType": "address",
          "name": "owner",
          "type": "address"
        },
        {
          "internalType": "address",
          "name": "operator",
          "type": "address"
        }
      ],
      "name": "isApprovedForAll",
      "outputs": [
        {
          "internalType": "bool",
          "name": "",
          "type": "bool"
        }
      ],
      "stateMutability": "view",
      "type": "function"
    },
    {
      "inputs": [],
      "name": "maxSupply",
      "outputs": [
        {
          "internalType": "uint256",
          "name": "",
          "type": "uint256"
        }
      ],
      "stateMutability": "view",
      "type": "function"
    },
    {
      "inputs": [],
      "name": "mint",
      "outputs": [],
      "stateMutability": "payable",
      "type": "function"
    },
    {
      "inputs": [],
      "name": "name",
      "outputs": [
        {
          "internalType": "string",
          "name": "",
          "type": "string"
        }
      ],
      "stateMutability": "view",
      "type": "function"
    },
    {
      "inputs": [],
      "name": "owner",
      "outputs": [
        {
          "internalType": "address",
          "name": "",
          "type": "address"
        }
      ],
      "stateMutability": "view",
      "type": "function"
    },
    {
      "inputs": [
        {
          "internalType": "uint256",
          "name": "tokenId",
          "type": "uint256"
        }
      ],
      "name": "ownerOf",
      "outputs": [
        {
          "internalType": "address",
          "name": "",
          "type": "address"
        }
      ],
      "stateMutability": "view",
      "type": "function"
    },
    {
      "inputs": [],
      "name": "paused",
      "outputs": [
        {
          "internalType": "bool",
          "name": "",
          "type": "bool"
        }
      ],
      "stateMutability": "view",
      "type": "function"
    },
    {
      "inputs": [],
      "name": "renounceOwnership",
      "outputs": [],
      "stateMutability": "nonpayable",
      "type": "function"
    },
    {
      "inputs": [
        {
          "internalType": "address",
          "name": "from",
          "type": "address"
        },
        {
          "internalType": "address",
          "name": "to",
          "type": "address"
        },
        {
          "internalType": "uint256",
          "name": "tokenId",
          "type": "uint256"
        }
      ],
      "name": "safeTransferFrom",
      "outputs": [],
      "stateMutability": "nonpayable",
      "type": "function"
    },
    {
      "inputs": [
        {
          "internalType": "address",
          "name": "from",
          "type": "address"
        },
        {
          "internalType": "address",
          "name": "to",
          "type": "address"
        },
        {
          "internalType": "uint256",
          "name": "tokenId",
          "type": "uint256"
        },
        {
          "internalType": "bytes",
          "name": "data",
          "type": "bytes"
        }
      ],
      "name": "safeTransferFrom",
      "outputs": [],
      "stateMutability": "nonpayable",
      "type": "function"
    },
    {
      "inputs": [
        {
          "internalType": "address",
          "name": "operator",
          "type": "address"
        },
        {
          "internalType": "bool",
          "name": "approved",
          "type": "bool"
        }
      ],
      "name": "setApprovalForAll",
      "outputs": [],
      "stateMutability": "nonpayable",
      "type": "function"
    },
    {
      "inputs": [
        {
          "internalType": "string",
          "name": "_uriPrefix",
          "type": "string"
        }
      ],
      "name": "setBaseURI",
      "outputs": [],
      "stateMutability": "nonpayable",
      "type": "function"
    },
    {
      "inputs": [
        {
          "internalType": "bool",
          "name": "_state",
          "type": "bool"
        }
      ],
      "name": "setPause",
      "outputs": [],
      "stateMutability": "nonpayable",
      "type": "function"
    },
    {
      "inputs": [
        {
          "internalType": "uint256",
          "name": "_totalNft",
          "type": "uint256"
        }
      ],
      "name": "setTotalNft",
      "outputs": [],
      "stateMutability": "nonpayable",
      "type": "function"
    },
    {
      "inputs": [
        {
          "internalType": "bytes4",
          "name": "interfaceId",
          "type": "bytes4"
        }
      ],
      "name": "supportsInterface",
      "outputs": [
        {
          "internalType": "bool",
          "name": "",
          "type": "bool"
        }
      ],
      "stateMutability": "view",
      "type": "function"
    },
    {
      "inputs": [],
      "name": "symbol",
      "outputs": [
        {
          "internalType": "string",
          "name": "",
          "type": "string"
        }
      ],
      "stateMutability": "view",
      "type": "function"
    },
    {
      "inputs": [
        {
          "internalType": "uint256",
          "name": "_tokenId",
          "type": "uint256"
        }
      ],
      "name": "tokenURI",
      "outputs": [
        {
          "internalType": "string",
          "name": "",
          "type": "string"
        }
      ],
      "stateMutability": "view",
      "type": "function"
    },
    {
      "inputs": [],
      "name": "totalNft",
      "outputs": [
        {
          "internalType": "uint256",
          "name": "",
          "type": "uint256"
        }
      ],
      "stateMutability": "view",
      "type": "function"
    },
    {
      "inputs": [
        {
          "internalType": "address",
          "name": "from",
          "type": "address"
        },
        {
          "internalType": "address",
          "name": "to",
          "type": "address"
        },
        {
          "internalType": "uint256",
          "name": "tokenId",
          "type": "uint256"
        }
      ],
      "name": "transferFrom",
      "outputs": [],
      "stateMutability": "nonpayable",
      "type": "function"
    },
    {
      "inputs": [
        {
          "internalType": "address",
          "name": "newOwner",
          "type": "address"
        }
      ],
      "name": "transferOwnership",
      "outputs": [],
      "stateMutability": "nonpayable",
      "type": "function"
    },
    {
      "inputs": [],
      "name": "uriPrefix",
      "outputs": [
        {
          "internalType": "string",
          "name": "",
          "type": "string"
        }
      ],
      "stateMutability": "view",
      "type": "function"
    },
    {
      "inputs": [],
      "name": "uriSuffix",
      "outputs": [
        {
          "internalType": "string",
          "name": "",
          "type": "string"
        }
      ],
      "stateMutability": "view",
      "type": "function"
    }
  ],
  "bytecode": "0x60c06040526005608081905264173539b7b760d91b60a09081526200002891600a9190620001c9565b5066038d7ea4c68000600b556103e8600c55600e805460ff191690553480156200005157600080fd5b506040516200227b3803806200227b83398101604081905262000074916200033c565b8351849084906200008d906000906020850190620001c9565b508051620000a3906001906020840190620001c9565b505050620000c0620000ba620000e060201b60201c565b620000e4565b620000cb8262000136565b620000d68162000159565b5050505062000412565b3390565b600780546001600160a01b038381166001600160a01b0319831681179093556040519116919082907f8be0079c531659141344cd1fd0a4f28419497f9722a3daafe3b4186f6b6457e090600090a35050565b6200014062000168565b805162000155906009906020840190620001c9565b5050565b6200016362000168565b600d55565b6007546001600160a01b03163314620001c75760405162461bcd60e51b815260206004820181905260248201527f4f776e61626c653a2063616c6c6572206973206e6f7420746865206f776e6572604482015260640160405180910390fd5b565b828054620001d790620003d5565b90600052602060002090601f016020900481019282620001fb576000855562000246565b82601f106200021657805160ff191683800117855562000246565b8280016001018555821562000246579182015b828111156200024657825182559160200191906001019062000229565b506200025492915062000258565b5090565b5b8082111562000254576000815560010162000259565b634e487b7160e01b600052604160045260246000fd5b600082601f8301126200029757600080fd5b81516001600160401b0380821115620002b457620002b46200026f565b604051601f8301601f19908116603f01168101908282118183101715620002df57620002df6200026f565b81604052838152602092508683858801011115620002fc57600080fd5b600091505b8382101562000320578582018301518183018401529082019062000301565b83821115620003325760008385830101525b9695505050505050565b600080600080608085870312156200035357600080fd5b84516001600160401b03808211156200036b57600080fd5b620003798883890162000285565b955060208701519150808211156200039057600080fd5b6200039e8883890162000285565b94506040870151915080821115620003b557600080fd5b50620003c48782880162000285565b606096909601519497939650505050565b600181811c90821680620003ea57607f821691505b602082108114156200040c57634e487b7160e01b600052602260045260246000fd5b50919050565b611e5980620004226000396000f3fe6080604052600436106101b75760003560e01c806362b99ad4116100ec578063a22cb4651161008a578063c87b56dd11610064578063c87b56dd14610492578063d5abeb01146104b2578063e985e9c5146104c8578063f2fde38b1461051157600080fd5b8063a22cb46514610432578063b88d4fde14610452578063bedb86fb1461047257600080fd5b8063715018a6116100c6578063715018a6146103c857806377bf44ea146103dd5780638da5cb5b146103ff57806395d89b411461041d57600080fd5b806362b99ad4146103735780636352211e1461038857806370a08231146103a857600080fd5b806323b872dd11610159578063490c06c111610133578063490c06c11461030e5780635503a0e81461032457806355f804b3146103395780635c975abb1461035957600080fd5b806323b872dd146102ae5780633629bf44146102ce57806342842e0e146102ee57600080fd5b8063095ea7b311610195578063095ea7b31461024b57806312065fe01461026d5780631249c58b1461029057806313faede61461029857600080fd5b806301ffc9a7146101bc57806306fdde03146101f1578063081812fc14610213575b600080fd5b3480156101c857600080fd5b506101dc6101d7366004611809565b610531565b60405190151581526020015b60405180910390f35b3480156101fd57600080fd5b50610206610583565b6040516101e89190611885565b34801561021f57600080fd5b5061023361022e366004611898565b610615565b6040516001600160a01b0390911681526020016101e8565b34801561025757600080fd5b5061026b6102663660046118cd565b61063c565b005b34801561027957600080fd5b50610282610757565b6040519081526020016101e8565b61026b610766565b3480156102a457600080fd5b50610282600b5481565b3480156102ba57600080fd5b5061026b6102c93660046118f7565b6109a5565b3480156102da57600080fd5b5061026b6102e9366004611898565b6109d6565b3480156102fa57600080fd5b5061026b6103093660046118f7565b6109e3565b34801561031a57600080fd5b50610282600d5481565b34801561033057600080fd5b506102066109fe565b34801561034557600080fd5b5061026b6103543660046119bf565b610a8c565b34801561036557600080fd5b50600e546101dc9060ff1681565b34801561037f57600080fd5b50610206610aab565b34801561039457600080fd5b506102336103a3366004611898565b610ab8565b3480156103b457600080fd5b506102826103c3366004611a08565b610b18565b3480156103d457600080fd5b5061026b610b9e565b3480156103e957600080fd5b506103f2610bb2565b6040516101e89190611a23565b34801561040b57600080fd5b506007546001600160a01b0316610233565b34801561042957600080fd5b50610206610cd8565b34801561043e57600080fd5b5061026b61044d366004611ad6565b610ce7565b34801561045e57600080fd5b5061026b61046d366004611b09565b610cf2565b34801561047e57600080fd5b5061026b61048d366004611b85565b610d2a565b34801561049e57600080fd5b506102066104ad366004611898565b610d45565b3480156104be57600080fd5b50610282600c5481565b3480156104d457600080fd5b506101dc6104e3366004611ba0565b6001600160a01b03918216600090815260056020908152604080832093909416825291909152205460ff1690565b34801561051d57600080fd5b5061026b61052c366004611a08565b610dd0565b60006001600160e01b031982166380ac58cd60e01b148061056257506001600160e01b03198216635b5e139f60e01b145b8061057d57506301ffc9a760e01b6001600160e01b03198316145b92915050565b60606000805461059290611bca565b80601f01602080910402602001604051908101604052809291908181526020018280546105be90611bca565b801561060b5780601f106105e05761010080835404028352916020019161060b565b820191906000526020600020905b8154815290600101906020018083116105ee57829003601f168201915b5050505050905090565b600061062082610e49565b506000908152600460205260409020546001600160a01b031690565b600061064782610ab8565b9050806001600160a01b0316836001600160a01b031614156106ba5760405162461bcd60e51b815260206004820152602160248201527f4552433732313a20617070726f76616c20746f2063757272656e74206f776e656044820152603960f91b60648201526084015b60405180910390fd5b336001600160a01b03821614806106d657506106d681336104e3565b6107485760405162461bcd60e51b815260206004820152603d60248201527f4552433732313a20617070726f76652063616c6c6572206973206e6f7420746f60448201527f6b656e206f776e6572206f7220617070726f76656420666f7220616c6c00000060648201526084016106b1565b6107528383610ea8565b505050565b6000610761610f16565b504790565b600e5460ff16156107b95760405162461bcd60e51b815260206004820152601760248201527f4e46547320756e646572206d61696e74656e616e63652100000000000000000060448201526064016106b1565b6107c7600880546001019055565b60006107d260085490565b9050600c548111156108305760405162461bcd60e51b815260206004820152602160248201527f536f7272792c20616c6c204e4654732068617665206265656e206d696e7465646044820152602160f81b60648201526084016106b1565b600b543410156108825760405162461bcd60e51b815260206004820152601a60248201527f457468657220746f6f206c6f7720666f72206d696e74696e672100000000000060448201526064016106b1565b61088c3382610f70565b600f6040518060a00160405280838152602001336001600160a01b031681526020013481526020016108c56108c085610f8a565b611027565b81524260209182015282546001808201855560009485529382902083516005909202019081558282015193810180546001600160a01b0319166001600160a01b03909516949094179093556040820151600284015560608201518051929392610934926003850192019061175a565b5060808201518160040155505061094d6108c082610f8a565b60405161095a9190611c05565b6040805191829003822083835234602084015242838301529051909133917fb075618f3bda741d5eae1b13373e9ed95e201c619fce29af0642c61a1c491c089181900360600190a350565b6109af3382611080565b6109cb5760405162461bcd60e51b81526004016106b190611c21565b6107528383836110ff565b6109de610f16565b600d55565b61075283838360405180602001604052806000815250610cf2565b600a8054610a0b90611bca565b80601f0160208091040260200160405190810160405280929190818152602001828054610a3790611bca565b8015610a845780601f10610a5957610100808354040283529160200191610a84565b820191906000526020600020905b815481529060010190602001808311610a6757829003601f168201915b505050505081565b610a94610f16565b8051610aa790600990602084019061175a565b5050565b60098054610a0b90611bca565b6000818152600260205260408120546001600160a01b03168061057d5760405162461bcd60e51b8152602060048201526018602482015277115490cdcc8c4e881a5b9d985b1a59081d1bdad95b88125160421b60448201526064016106b1565b60006001600160a01b038216610b825760405162461bcd60e51b815260206004820152602960248201527f4552433732313a2061646472657373207a65726f206973206e6f7420612076616044820152683634b21037bbb732b960b91b60648201526084016106b1565b506001600160a01b031660009081526003602052604090205490565b610ba6610f16565b610bb06000611263565b565b6060600f805480602002602001604051908101604052809291908181526020016000905b82821015610ccf5760008481526020908190206040805160a081018252600586029092018054835260018101546001600160a01b031693830193909352600283015490820152600382018054919291606084019190610c3490611bca565b80601f0160208091040260200160405190810160405280929190818152602001828054610c6090611bca565b8015610cad5780601f10610c8257610100808354040283529160200191610cad565b820191906000526020600020905b815481529060010190602001808311610c9057829003601f168201915b5050505050815260200160048201548152505081526020019060010190610bd6565b50505050905090565b60606001805461059290611bca565b610aa73383836112b5565b610cfc3383611080565b610d185760405162461bcd60e51b81526004016106b190611c21565b610d2484848484611384565b50505050565b610d32610f16565b600e805460ff1916911515919091179055565b6000818152600260205260409020546060906001600160a01b0316610dc45760405162461bcd60e51b815260206004820152602f60248201527f4552433732314d657461646174613a2055524920717565727920666f72206e6f60448201526e3732bc34b9ba32b73a103a37b5b2b760891b60648201526084016106b1565b61057d6108c083610f8a565b610dd8610f16565b6001600160a01b038116610e3d5760405162461bcd60e51b815260206004820152602660248201527f4f776e61626c653a206e6577206f776e657220697320746865207a65726f206160448201526564647265737360d01b60648201526084016106b1565b610e4681611263565b50565b6000818152600260205260409020546001600160a01b0316610e465760405162461bcd60e51b8152602060048201526018602482015277115490cdcc8c4e881a5b9d985b1a59081d1bdad95b88125160421b60448201526064016106b1565b600081815260046020526040902080546001600160a01b0319166001600160a01b0384169081179091558190610edd82610ab8565b6001600160a01b03167f8c5be1e5ebec7d5bd14f71427d1e84f3dd0314c0f7b2291e5b200ac8c7c3b92560405160405180910390a45050565b6007546001600160a01b03163314610bb05760405162461bcd60e51b815260206004820181905260248201527f4f776e61626c653a2063616c6c6572206973206e6f7420746865206f776e657260448201526064016106b1565b610aa78282604051806020016040528060008152506113b7565b60606000610f97836113ea565b600101905060008167ffffffffffffffff811115610fb757610fb7611933565b6040519080825280601f01601f191660200182016040528015610fe1576020820181803683370190505b5090508181016020015b600019016f181899199a1a9b1b9c1cb0b131b232b360811b600a86061a8153600a850494508461101a5761101f565b610feb565b509392505050565b606060006110336114c2565b511161104e576040518060200160405280600081525061057d565b6110566114c2565b82600a60405160200161106b93929190611c6e565b60405160208183030381529060405292915050565b60008061108c83610ab8565b9050806001600160a01b0316846001600160a01b031614806110d357506001600160a01b0380821660009081526005602090815260408083209388168352929052205460ff165b806110f75750836001600160a01b03166110ec84610615565b6001600160a01b0316145b949350505050565b826001600160a01b031661111282610ab8565b6001600160a01b0316146111385760405162461bcd60e51b81526004016106b190611d32565b6001600160a01b03821661119a5760405162461bcd60e51b8152602060048201526024808201527f4552433732313a207472616e7366657220746f20746865207a65726f206164646044820152637265737360e01b60648201526084016106b1565b826001600160a01b03166111ad82610ab8565b6001600160a01b0316146111d35760405162461bcd60e51b81526004016106b190611d32565b600081815260046020908152604080832080546001600160a01b03199081169091556001600160a01b0387811680865260038552838620805460001901905590871680865283862080546001019055868652600290945282852080549092168417909155905184937fddf252ad1be2c89b69c2b068fc378daa952ba7f163c4a11628f55a4df523b3ef91a4505050565b600780546001600160a01b038381166001600160a01b0319831681179093556040519116919082907f8be0079c531659141344cd1fd0a4f28419497f9722a3daafe3b4186f6b6457e090600090a35050565b816001600160a01b0316836001600160a01b031614156113175760405162461bcd60e51b815260206004820152601960248201527f4552433732313a20617070726f766520746f2063616c6c65720000000000000060448201526064016106b1565b6001600160a01b03838116600081815260056020908152604080832094871680845294825291829020805460ff191686151590811790915591519182527f17307eab39ab6107e8899845ad3d59bd9653f200f220920489ca2b5937696c31910160405180910390a3505050565b61138f8484846110ff565b61139b848484846114d1565b610d245760405162461bcd60e51b81526004016106b190611d77565b6113c183836115cf565b6113ce60008484846114d1565b6107525760405162461bcd60e51b81526004016106b190611d77565b60008072184f03e93ff9f4daa797ed6e38ed64bf6a1f0160401b83106114295772184f03e93ff9f4daa797ed6e38ed64bf6a1f0160401b830492506040015b6d04ee2d6d415b85acef81000000008310611455576d04ee2d6d415b85acef8100000000830492506020015b662386f26fc10000831061147357662386f26fc10000830492506010015b6305f5e100831061148b576305f5e100830492506008015b612710831061149f57612710830492506004015b606483106114b1576064830492506002015b600a831061057d5760010192915050565b60606009805461059290611bca565b60006001600160a01b0384163b156115c457604051630a85bd0160e11b81526001600160a01b0385169063150b7a0290611515903390899088908890600401611dc9565b6020604051808303816000875af1925050508015611550575060408051601f3d908101601f1916820190925261154d91810190611e06565b60015b6115aa573d80801561157e576040519150601f19603f3d011682016040523d82523d6000602084013e611583565b606091505b5080516115a25760405162461bcd60e51b81526004016106b190611d77565b805181602001fd5b6001600160e01b031916630a85bd0160e11b1490506110f7565b506001949350505050565b6001600160a01b0382166116255760405162461bcd60e51b815260206004820181905260248201527f4552433732313a206d696e7420746f20746865207a65726f206164647265737360448201526064016106b1565b6000818152600260205260409020546001600160a01b03161561168a5760405162461bcd60e51b815260206004820152601c60248201527f4552433732313a20746f6b656e20616c7265616479206d696e7465640000000060448201526064016106b1565b6000818152600260205260409020546001600160a01b0316156116ef5760405162461bcd60e51b815260206004820152601c60248201527f4552433732313a20746f6b656e20616c7265616479206d696e7465640000000060448201526064016106b1565b6001600160a01b038216600081815260036020908152604080832080546001019055848352600290915280822080546001600160a01b0319168417905551839291907fddf252ad1be2c89b69c2b068fc378daa952ba7f163c4a11628f55a4df523b3ef908290a45050565b82805461176690611bca565b90600052602060002090601f01602090048101928261178857600085556117ce565b82601f106117a157805160ff19168380011785556117ce565b828001600101855582156117ce579182015b828111156117ce5782518255916020019190600101906117b3565b506117da9291506117de565b5090565b5b808211156117da57600081556001016117df565b6001600160e01b031981168114610e4657600080fd5b60006020828403121561181b57600080fd5b8135611826816117f3565b9392505050565b60005b83811015611848578181015183820152602001611830565b83811115610d245750506000910152565b6000815180845261187181602086016020860161182d565b601f01601f19169290920160200192915050565b6020815260006118266020830184611859565b6000602082840312156118aa57600080fd5b5035919050565b80356001600160a01b03811681146118c857600080fd5b919050565b600080604083850312156118e057600080fd5b6118e9836118b1565b946020939093013593505050565b60008060006060848603121561190c57600080fd5b611915846118b1565b9250611923602085016118b1565b9150604084013590509250925092565b634e487b7160e01b600052604160045260246000fd5b600067ffffffffffffffff8084111561196457611964611933565b604051601f8501601f19908116603f0116810190828211818310171561198c5761198c611933565b816040528093508581528686860111156119a557600080fd5b858560208301376000602087830101525050509392505050565b6000602082840312156119d157600080fd5b813567ffffffffffffffff8111156119e857600080fd5b8201601f810184136119f957600080fd5b6110f784823560208401611949565b600060208284031215611a1a57600080fd5b611826826118b1565b60006020808301818452808551808352604092508286019150828160051b87010184880160005b83811015611ab857888303603f19018552815180518452878101516001600160a01b031688850152868101518785015260608082015160a08287018190529190611a9683880182611859565b6080948501519790940196909652505094870194925090860190600101611a4a565b509098975050505050505050565b803580151581146118c857600080fd5b60008060408385031215611ae957600080fd5b611af2836118b1565b9150611b0060208401611ac6565b90509250929050565b60008060008060808587031215611b1f57600080fd5b611b28856118b1565b9350611b36602086016118b1565b925060408501359150606085013567ffffffffffffffff811115611b5957600080fd5b8501601f81018713611b6a57600080fd5b611b7987823560208401611949565b91505092959194509250565b600060208284031215611b9757600080fd5b61182682611ac6565b60008060408385031215611bb357600080fd5b611bbc836118b1565b9150611b00602084016118b1565b600181811c90821680611bde57607f821691505b60208210811415611bff57634e487b7160e01b600052602260045260246000fd5b50919050565b60008251611c1781846020870161182d565b9190910192915050565b6020808252602d908201527f4552433732313a2063616c6c6572206973206e6f7420746f6b656e206f776e6560408201526c1c881bdc88185c1c1c9bdd9959609a1b606082015260800190565b600084516020611c818285838a0161182d565b855191840191611c948184848a0161182d565b8554920191600090600181811c9080831680611cb157607f831692505b858310811415611ccf57634e487b7160e01b85526022600452602485fd5b808015611ce35760018114611cf457611d21565b60ff19851688528388019550611d21565b60008b81526020902060005b85811015611d195781548a820152908401908801611d00565b505083880195505b50939b9a5050505050505050505050565b60208082526025908201527f4552433732313a207472616e736665722066726f6d20696e636f72726563742060408201526437bbb732b960d91b606082015260800190565b60208082526032908201527f4552433732313a207472616e7366657220746f206e6f6e20455243373231526560408201527131b2b4bb32b91034b6b83632b6b2b73a32b960711b606082015260800190565b6001600160a01b0385811682528416602082015260408101839052608060608201819052600090611dfc90830184611859565b9695505050505050565b600060208284031215611e1857600080fd5b8151611826816117f356fea264697066735822122000fa6358a40073d853aabc2fdfd136720dcf96aed17dfd26f099c58dd34be48164736f6c634300080b0033",
  "linkReferences": {},
  "deployedLinkReferences": {}
}