{
  "_format": "hh-sol-artifact-1",
  "contractName": "AwesomeNFT",
  "sourceName": "src/backend/contracts/AwesomeNFT.sol",
  "abi": [
    {
      "inputs": [
        {
          "internalType": "string",
          "name": "_name",
          "type": "string"
        },
        {
          "internalType": "string",
          "name": "_symbol",
          "type": "string"
        },
        {
          "internalType": "string",
          "name": "_uriPrefix",
          "type": "string"
        },
        {
          "internalType": "uint256",
          "name": "_totalNft",
          "type": "uint256"
        }
      ],
      "stateMutability": "nonpayable",
      "type": "constructor"
    },
    {
      "anonymous": false,
      "inputs": [
        {
          "indexed": true,
          "internalType": "address",
          "name": "owner",
          "type": "address"
        },
        {
          "indexed": true,
          "internalType": "address",
          "name": "approved",
          "type": "address"
        },
        {
          "indexed": true,
          "internalType": "uint256",
          "name": "tokenId",
          "type": "uint256"
        }
      ],
      "name": "Approval",
      "type": "event"
    },
    {
      "anonymous": false,
      "inputs": [
        {
          "indexed": true,
          "internalType": "address",
          "name": "owner",
          "type": "address"
        },
        {
          "indexed": true,
          "internalType": "address",
          "name": "operator",
          "type": "address"
        },
        {
          "indexed": false,
          "internalType": "bool",
          "name": "approved",
          "type": "bool"
        }
      ],
      "name": "ApprovalForAll",
      "type": "event"
    },
    {
      "anonymous": false,
      "inputs": [
        {
          "indexed": false,
          "internalType": "uint256",
          "name": "id",
          "type": "uint256"
        },
        {
          "indexed": true,
          "internalType": "address",
          "name": "buyer",
          "type": "address"
        },
        {
          "indexed": false,
          "internalType": "uint256",
          "name": "cost",
          "type": "uint256"
        },
        {
          "indexed": true,
          "internalType": "string",
          "name": "tokenURI",
          "type": "string"
        },
        {
          "indexed": false,
          "internalType": "uint256",
          "name": "timestamp",
          "type": "uint256"
        }
      ],
      "name": "Minted",
      "type": "event"
    },
    {
      "anonymous": false,
      "inputs": [
        {
          "indexed": true,
          "internalType": "address",
          "name": "previousOwner",
          "type": "address"
        },
        {
          "indexed": true,
          "internalType": "address",
          "name": "newOwner",
          "type": "address"
        }
      ],
      "name": "OwnershipTransferred",
      "type": "event"
    },
    {
      "anonymous": false,
      "inputs": [
        {
          "indexed": true,
          "internalType": "uint256",
          "name": "supply",
          "type": "uint256"
        }
      ],
      "name": "SupplyChanged",
      "type": "event"
    },
    {
      "anonymous": false,
      "inputs": [
        {
          "indexed": true,
          "internalType": "address",
          "name": "from",
          "type": "address"
        },
        {
          "indexed": true,
          "internalType": "address",
          "name": "to",
          "type": "address"
        },
        {
          "indexed": true,
          "internalType": "uint256",
          "name": "tokenId",
          "type": "uint256"
        }
      ],
      "name": "Transfer",
      "type": "event"
    },
    {
      "inputs": [
        {
          "internalType": "uint256",
          "name": "_newSupply",
          "type": "uint256"
        }
      ],
      "name": "_setTotalSupply",
      "outputs": [],
      "stateMutability": "nonpayable",
      "type": "function"
    },
    {
      "inputs": [
        {
          "internalType": "address",
          "name": "to",
          "type": "address"
        },
        {
          "internalType": "uint256",
          "name": "tokenId",
          "type": "uint256"
        }
      ],
      "name": "approve",
      "outputs": [],
      "stateMutability": "nonpayable",
      "type": "function"
    },
    {
      "inputs": [],
      "name": "availableTokenCount",
      "outputs": [
        {
          "internalType": "uint256",
          "name": "",
          "type": "uint256"
        }
      ],
      "stateMutability": "view",
      "type": "function"
    },
    {
      "inputs": [
        {
          "internalType": "address",
          "name": "owner",
          "type": "address"
        }
      ],
      "name": "balanceOf",
      "outputs": [
        {
          "internalType": "uint256",
          "name": "",
          "type": "uint256"
        }
      ],
      "stateMutability": "view",
      "type": "function"
    },
    {
      "inputs": [],
      "name": "cost",
      "outputs": [
        {
          "internalType": "uint256",
          "name": "",
          "type": "uint256"
        }
      ],
      "stateMutability": "view",
      "type": "function"
    },
    {
      "inputs": [],
      "name": "currentSupply",
      "outputs": [
        {
          "internalType": "uint256",
          "name": "",
          "type": "uint256"
        }
      ],
      "stateMutability": "view",
      "type": "function"
    },
    {
      "inputs": [
        {
          "internalType": "uint256",
          "name": "tokenId",
          "type": "uint256"
        }
      ],
      "name": "getApproved",
      "outputs": [
        {
          "internalType": "address",
          "name": "",
          "type": "address"
        }
      ],
      "stateMutability": "view",
      "type": "function"
    },
    {
      "inputs": [],
      "name": "getBalance",
      "outputs": [
        {
          "internalType": "uint256",
          "name": "",
          "type": "uint256"
        }
      ],
      "stateMutability": "view",
      "type": "function"
    },
    {
      "inputs": [],
      "name": "getMintedNFTs",
      "outputs": [
        {
          "components": [
            {
              "internalType": "uint256",
              "name": "id",
              "type": "uint256"
            },
            {
              "internalType": "address",
              "name": "buyer",
              "type": "address"
            },
            {
              "internalType": "uint256",
              "name": "cost",
              "type": "uint256"
            },
            {
              "internalType": "string",
              "name": "tokenUri",
              "type": "string"
            },
            {
              "internalType": "uint256",
              "name": "timestamp",
              "type": "uint256"
            }
          ],
          "internalType": "struct AwesomeNFT.MintedStruct[]",
          "name": "",
          "type": "tuple[]"
        }
      ],
      "stateMutability": "view",
      "type": "function"
    },
    {
      "inputs": [
        {
          "internalType": "address",
          "name": "owner",
          "type": "address"
        },
        {
          "internalType": "address",
          "name": "operator",
          "type": "address"
        }
      ],
      "name": "isApprovedForAll",
      "outputs": [
        {
          "internalType": "bool",
          "name": "",
          "type": "bool"
        }
      ],
      "stateMutability": "view",
      "type": "function"
    },
    {
      "inputs": [],
      "name": "mint",
      "outputs": [],
      "stateMutability": "payable",
      "type": "function"
    },
    {
      "inputs": [
        {
          "internalType": "uint256",
          "name": "",
          "type": "uint256"
        }
      ],
      "name": "minted",
      "outputs": [
        {
          "internalType": "uint256",
          "name": "id",
          "type": "uint256"
        },
        {
          "internalType": "address",
          "name": "buyer",
          "type": "address"
        },
        {
          "internalType": "uint256",
          "name": "cost",
          "type": "uint256"
        },
        {
          "internalType": "string",
          "name": "tokenUri",
          "type": "string"
        },
        {
          "internalType": "uint256",
          "name": "timestamp",
          "type": "uint256"
        }
      ],
      "stateMutability": "view",
      "type": "function"
    },
    {
      "inputs": [],
      "name": "name",
      "outputs": [
        {
          "internalType": "string",
          "name": "",
          "type": "string"
        }
      ],
      "stateMutability": "view",
      "type": "function"
    },
    {
      "inputs": [],
      "name": "owner",
      "outputs": [
        {
          "internalType": "address",
          "name": "",
          "type": "address"
        }
      ],
      "stateMutability": "view",
      "type": "function"
    },
    {
      "inputs": [
        {
          "internalType": "uint256",
          "name": "tokenId",
          "type": "uint256"
        }
      ],
      "name": "ownerOf",
      "outputs": [
        {
          "internalType": "address",
          "name": "",
          "type": "address"
        }
      ],
      "stateMutability": "view",
      "type": "function"
    },
    {
      "inputs": [],
      "name": "paused",
      "outputs": [
        {
          "internalType": "bool",
          "name": "",
          "type": "bool"
        }
      ],
      "stateMutability": "view",
      "type": "function"
    },
    {
      "inputs": [],
      "name": "renounceOwnership",
      "outputs": [],
      "stateMutability": "nonpayable",
      "type": "function"
    },
    {
      "inputs": [
        {
          "internalType": "address",
          "name": "from",
          "type": "address"
        },
        {
          "internalType": "address",
          "name": "to",
          "type": "address"
        },
        {
          "internalType": "uint256",
          "name": "tokenId",
          "type": "uint256"
        }
      ],
      "name": "safeTransferFrom",
      "outputs": [],
      "stateMutability": "nonpayable",
      "type": "function"
    },
    {
      "inputs": [
        {
          "internalType": "address",
          "name": "from",
          "type": "address"
        },
        {
          "internalType": "address",
          "name": "to",
          "type": "address"
        },
        {
          "internalType": "uint256",
          "name": "tokenId",
          "type": "uint256"
        },
        {
          "internalType": "bytes",
          "name": "data",
          "type": "bytes"
        }
      ],
      "name": "safeTransferFrom",
      "outputs": [],
      "stateMutability": "nonpayable",
      "type": "function"
    },
    {
      "inputs": [
        {
          "internalType": "address",
          "name": "operator",
          "type": "address"
        },
        {
          "internalType": "bool",
          "name": "approved",
          "type": "bool"
        }
      ],
      "name": "setApprovalForAll",
      "outputs": [],
      "stateMutability": "nonpayable",
      "type": "function"
    },
    {
      "inputs": [
        {
          "internalType": "string",
          "name": "_uriPrefix",
          "type": "string"
        }
      ],
      "name": "setBaseURI",
      "outputs": [],
      "stateMutability": "nonpayable",
      "type": "function"
    },
    {
      "inputs": [
        {
          "internalType": "bool",
          "name": "_state",
          "type": "bool"
        }
      ],
      "name": "setPause",
      "outputs": [],
      "stateMutability": "nonpayable",
      "type": "function"
    },
    {
      "inputs": [
        {
          "internalType": "bytes4",
          "name": "interfaceId",
          "type": "bytes4"
        }
      ],
      "name": "supportsInterface",
      "outputs": [
        {
          "internalType": "bool",
          "name": "",
          "type": "bool"
        }
      ],
      "stateMutability": "view",
      "type": "function"
    },
    {
      "inputs": [],
      "name": "symbol",
      "outputs": [
        {
          "internalType": "string",
          "name": "",
          "type": "string"
        }
      ],
      "stateMutability": "view",
      "type": "function"
    },
    {
      "inputs": [],
      "name": "tokenCount",
      "outputs": [
        {
          "internalType": "uint256",
          "name": "",
          "type": "uint256"
        }
      ],
      "stateMutability": "view",
      "type": "function"
    },
    {
      "inputs": [
        {
          "internalType": "uint256",
          "name": "_tokenId",
          "type": "uint256"
        }
      ],
      "name": "tokenURI",
      "outputs": [
        {
          "internalType": "string",
          "name": "",
          "type": "string"
        }
      ],
      "stateMutability": "view",
      "type": "function"
    },
    {
      "inputs": [],
      "name": "totalSupply",
      "outputs": [
        {
          "internalType": "uint256",
          "name": "",
          "type": "uint256"
        }
      ],
      "stateMutability": "view",
      "type": "function"
    },
    {
      "inputs": [
        {
          "internalType": "address",
          "name": "from",
          "type": "address"
        },
        {
          "internalType": "address",
          "name": "to",
          "type": "address"
        },
        {
          "internalType": "uint256",
          "name": "tokenId",
          "type": "uint256"
        }
      ],
      "name": "transferFrom",
      "outputs": [],
      "stateMutability": "nonpayable",
      "type": "function"
    },
    {
      "inputs": [
        {
          "internalType": "address",
          "name": "newOwner",
          "type": "address"
        }
      ],
      "name": "transferOwnership",
      "outputs": [],
      "stateMutability": "nonpayable",
      "type": "function"
    },
    {
      "inputs": [],
      "name": "uriPrefix",
      "outputs": [
        {
          "internalType": "string",
          "name": "",
          "type": "string"
        }
      ],
      "stateMutability": "view",
      "type": "function"
    },
    {
      "inputs": [],
      "name": "uriSuffix",
      "outputs": [
        {
          "internalType": "string",
          "name": "",
          "type": "string"
        }
      ],
      "stateMutability": "view",
      "type": "function"
    },
    {
      "inputs": [
        {
          "internalType": "address",
          "name": "_addr",
          "type": "address"
        }
      ],
      "name": "withdraw",
      "outputs": [],
      "stateMutability": "nonpayable",
      "type": "function"
    }
  ],
  "bytecode": "0x6000600c5560c06040526005608081905264173539b7b760d91b60a09081526200002d91600e9190620001ba565b5066038d7ea4c68000600f556010805460ff191690553480156200005057600080fd5b506040516200276f3803806200276f83398101604081905262000073916200032d565b806001818686816000908051906020019062000091929190620001ba565b508051620000a7906001906020840190620001ba565b505050620000c4620000be620000e060201b60201c565b620000e4565b600955600b5550620000d68262000136565b5050505062000403565b3390565b600780546001600160a01b038381166001600160a01b0319831681179093556040519116919082907f8be0079c531659141344cd1fd0a4f28419497f9722a3daafe3b4186f6b6457e090600090a35050565b6200014062000159565b80516200015590600d906020840190620001ba565b5050565b6007546001600160a01b03163314620001b85760405162461bcd60e51b815260206004820181905260248201527f4f776e61626c653a2063616c6c6572206973206e6f7420746865206f776e6572604482015260640160405180910390fd5b565b828054620001c890620003c6565b90600052602060002090601f016020900481019282620001ec576000855562000237565b82601f106200020757805160ff191683800117855562000237565b8280016001018555821562000237579182015b82811115620002375782518255916020019190600101906200021a565b506200024592915062000249565b5090565b5b808211156200024557600081556001016200024a565b634e487b7160e01b600052604160045260246000fd5b600082601f8301126200028857600080fd5b81516001600160401b0380821115620002a557620002a562000260565b604051601f8301601f19908116603f01168101908282118183101715620002d057620002d062000260565b81604052838152602092508683858801011115620002ed57600080fd5b600091505b83821015620003115785820183015181830184015290820190620002f2565b83821115620003235760008385830101525b9695505050505050565b600080600080608085870312156200034457600080fd5b84516001600160401b03808211156200035c57600080fd5b6200036a8883890162000276565b955060208701519150808211156200038157600080fd5b6200038f8883890162000276565b94506040870151915080821115620003a657600080fd5b50620003b58782880162000276565b606096909601519497939650505050565b600181811c90821680620003db57607f821691505b60208210811415620003fd57634e487b7160e01b600052602260045260246000fd5b50919050565b61235c80620004136000396000f3fe6080604052600436106101e35760003560e01c80636352211e116101025780639f181b5e11610095578063c87b56dd11610064578063c87b56dd14610539578063e14ca35314610559578063e985e9c51461056e578063f2fde38b146105b757600080fd5b80639f181b5e146104c4578063a22cb465146104d9578063b88d4fde146104f9578063bedb86fb1461051957600080fd5b806377bf44ea116100d157806377bf44ea1461043e5780637dc0bf3f146104605780638da5cb5b1461049157806395d89b41146104af57600080fd5b80636352211e146103d357806370a08231146103f3578063715018a614610413578063771282f61461042857600080fd5b806318160ddd1161017a5780635503a0e8116101495780635503a0e81461036f57806355f804b3146103845780635c975abb146103a457806362b99ad4146103be57600080fd5b806318160ddd146102fa57806323b872dd1461030f57806342842e0e1461032f57806351cff8d91461034f57600080fd5b8063095ea7b3116101b6578063095ea7b31461029957806312065fe0146102b95780631249c58b146102dc57806313faede6146102e457600080fd5b8063017838eb146101e857806301ffc9a71461020a57806306fdde031461023f578063081812fc14610261575b600080fd5b3480156101f457600080fd5b50610208610203366004611c3a565b6105d7565b005b34801561021657600080fd5b5061022a610225366004611c69565b6105eb565b60405190151581526020015b60405180910390f35b34801561024b57600080fd5b5061025461063d565b6040516102369190611ce5565b34801561026d57600080fd5b5061028161027c366004611c3a565b6106cf565b6040516001600160a01b039091168152602001610236565b3480156102a557600080fd5b506102086102b4366004611d0f565b6106f6565b3480156102c557600080fd5b506102ce610811565b604051908152602001610236565b610208610820565b3480156102f057600080fd5b506102ce600f5481565b34801561030657600080fd5b506009546102ce565b34801561031b57600080fd5b5061020861032a366004611d39565b610a5b565b34801561033b57600080fd5b5061020861034a366004611d39565b610a8c565b34801561035b57600080fd5b5061020861036a366004611d75565b610aa7565b34801561037b57600080fd5b50610254610ae7565b34801561039057600080fd5b5061020861039f366004611e1c565b610b75565b3480156103b057600080fd5b5060105461022a9060ff1681565b3480156103ca57600080fd5b50610254610b94565b3480156103df57600080fd5b506102816103ee366004611c3a565b610ba1565b3480156103ff57600080fd5b506102ce61040e366004611d75565b610c01565b34801561041f57600080fd5b50610208610c87565b34801561043457600080fd5b506102ce600c5481565b34801561044a57600080fd5b50610453610c9b565b6040516102369190611e65565b34801561046c57600080fd5b5061048061047b366004611c3a565b610dc1565b604051610236959493929190611f08565b34801561049d57600080fd5b506007546001600160a01b0316610281565b3480156104bb57600080fd5b50610254610e99565b3480156104d057600080fd5b506102ce610ea8565b3480156104e557600080fd5b506102086104f4366004611f57565b610eb8565b34801561050557600080fd5b50610208610514366004611f8a565b610ec3565b34801561052557600080fd5b50610208610534366004612006565b610efb565b34801561054557600080fd5b50610254610554366004611c3a565b610f16565b34801561056557600080fd5b506102ce610fa1565b34801561057a57600080fd5b5061022a610589366004612021565b6001600160a01b03918216600090815260056020908152604080832093909416825291909152205460ff1690565b3480156105c357600080fd5b506102086105d2366004611d75565b610fb8565b6105df61102e565b6105e881611088565b50565b60006001600160e01b031982166380ac58cd60e01b148061061c57506001600160e01b03198216635b5e139f60e01b145b8061063757506301ffc9a760e01b6001600160e01b03198316145b92915050565b60606000805461064c9061204b565b80601f01602080910402602001604051908101604052809291908181526020018280546106789061204b565b80156106c55780601f1061069a576101008083540402835291602001916106c5565b820191906000526020600020905b8154815290600101906020018083116106a857829003601f168201915b5050505050905090565b60006106da82611136565b506000908152600460205260409020546001600160a01b031690565b600061070182610ba1565b9050806001600160a01b0316836001600160a01b031614156107745760405162461bcd60e51b815260206004820152602160248201527f4552433732313a20617070726f76616c20746f2063757272656e74206f776e656044820152603960f91b60648201526084015b60405180910390fd5b336001600160a01b038216148061079057506107908133610589565b6108025760405162461bcd60e51b815260206004820152603d60248201527f4552433732313a20617070726f76652063616c6c6572206973206e6f7420746f60448201527f6b656e206f776e6572206f7220617070726f76656420666f7220616c6c000000606482015260840161076b565b61080c8383611195565b505050565b600061081b61102e565b504790565b600061082a610fa1565b116108725760405162461bcd60e51b81526020600482015260186024820152774e6f206d6f726520746f6b656e7320617661696c61626c6560401b604482015260640161076b565b60105460ff16156108c55760405162461bcd60e51b815260206004820152601760248201527f4e46547320756e646572206d61696e74656e616e636521000000000000000000604482015260640161076b565b600f543410156109175760405162461bcd60e51b815260206004820152601a60248201527f457468657220746f6f206c6f7720666f72206d696e74696e6721000000000000604482015260640161076b565b6000610921611203565b905061092d3382611396565b600c805490600061093d8361209c565b919050555060116040518060a00160405280838152602001336001600160a01b0316815260200134815260200161097b610976856113b0565b61144d565b81524260209182015282546001808201855560009485529382902083516005909202019081558282015193810180546001600160a01b0319166001600160a01b039095169490941790935560408201516002840155606082015180519293926109ea9260038501920190611ba1565b50608082015181600401555050610a03610976826113b0565b604051610a1091906120b7565b6040805191829003822083835234602084015242838301529051909133917fb075618f3bda741d5eae1b13373e9ed95e201c619fce29af0642c61a1c491c089181900360600190a350565b610a6533826114a6565b610a815760405162461bcd60e51b815260040161076b906120d3565b61080c838383611525565b61080c83838360405180602001604052806000815250610ec3565b610aaf61102e565b60405147906001600160a01b0383169082156108fc029083906000818181858888f1935050505015801561080c573d6000803e3d6000fd5b600e8054610af49061204b565b80601f0160208091040260200160405190810160405280929190818152602001828054610b209061204b565b8015610b6d5780601f10610b4257610100808354040283529160200191610b6d565b820191906000526020600020905b815481529060010190602001808311610b5057829003601f168201915b505050505081565b610b7d61102e565b8051610b9090600d906020840190611ba1565b5050565b600d8054610af49061204b565b6000818152600260205260408120546001600160a01b0316806106375760405162461bcd60e51b8152602060048201526018602482015277115490cdcc8c4e881a5b9d985b1a59081d1bdad95b88125160421b604482015260640161076b565b60006001600160a01b038216610c6b5760405162461bcd60e51b815260206004820152602960248201527f4552433732313a2061646472657373207a65726f206973206e6f7420612076616044820152683634b21037bbb732b960b91b606482015260840161076b565b506001600160a01b031660009081526003602052604090205490565b610c8f61102e565b610c996000611689565b565b60606011805480602002602001604051908101604052809291908181526020016000905b82821015610db85760008481526020908190206040805160a081018252600586029092018054835260018101546001600160a01b031693830193909352600283015490820152600382018054919291606084019190610d1d9061204b565b80601f0160208091040260200160405190810160405280929190818152602001828054610d499061204b565b8015610d965780601f10610d6b57610100808354040283529160200191610d96565b820191906000526020600020905b815481529060010190602001808311610d7957829003601f168201915b5050505050815260200160048201548152505081526020019060010190610cbf565b50505050905090565b60118181548110610dd157600080fd5b600091825260209091206005909102018054600182015460028301546003840180549395506001600160a01b03909216939092909190610e109061204b565b80601f0160208091040260200160405190810160405280929190818152602001828054610e3c9061204b565b8015610e895780601f10610e5e57610100808354040283529160200191610e89565b820191906000526020600020905b815481529060010190602001808311610e6c57829003601f168201915b5050505050908060040154905085565b60606001805461064c9061204b565b6000610eb360085490565b905090565b610b903383836116db565b610ecd33836114a6565b610ee95760405162461bcd60e51b815260040161076b906120d3565b610ef5848484846117aa565b50505050565b610f0361102e565b6010805460ff1916911515919091179055565b6000818152600260205260409020546060906001600160a01b0316610f955760405162461bcd60e51b815260206004820152602f60248201527f4552433732314d657461646174613a2055524920717565727920666f72206e6f60448201526e3732bc34b9ba32b73a103a37b5b2b760891b606482015260840161076b565b610637610976836113b0565b6000610fab610ea8565b600954610eb39190612120565b610fc061102e565b6001600160a01b0381166110255760405162461bcd60e51b815260206004820152602660248201527f4f776e61626c653a206e6577206f776e657220697320746865207a65726f206160448201526564647265737360d01b606482015260840161076b565b6105e881611689565b6007546001600160a01b03163314610c995760405162461bcd60e51b815260206004820181905260248201527f4f776e61626c653a2063616c6c6572206973206e6f7420746865206f776e6572604482015260640161076b565b611090610ea8565b81116111045760405162461bcd60e51b815260206004820152603960248201527f43616e2774207365742074686520737570706c7920746f206c6573732074686160448201527f6e207468652063757272656e7420746f6b656e20636f756e7400000000000000606482015260840161076b565b6009819055806040517ff71f9c3841c0bab7774017ffe585aeab36b5438d148506067901d47c5fa6f7e990600090a250565b6000818152600260205260409020546001600160a01b03166105e85760405162461bcd60e51b8152602060048201526018602482015277115490cdcc8c4e881a5b9d985b1a59081d1bdad95b88125160421b604482015260640161076b565b600081815260046020526040902080546001600160a01b0319166001600160a01b03841690811790915581906111ca82610ba1565b6001600160a01b03167f8c5be1e5ebec7d5bd14f71427d1e84f3dd0314c0f7b2291e5b200ac8c7c3b92560405160405180910390a45050565b60008061120e610fa1565b116112565760405162461bcd60e51b81526020600482015260186024820152774e6f206d6f726520746f6b656e7320617661696c61626c6560401b604482015260640161076b565b6000611260610ea8565b60095461126d9190612120565b6040516bffffffffffffffffffffffff1933606090811b8216602084015241901b166034820152446048820152456068820152426088820152909150600090829060a8016040516020818303038152906040528051906020012060001c6112d49190612137565b6000818152600a6020526040812054919250906112f2575080611303565b506000818152600a60205260409020545b600a6000611312600186612120565b8152602001908152602001600020546000141561134857611334600184612120565b6000838152600a6020526040902055611378565b600a6000611357600186612120565b81526020808201929092526040908101600090812054858252600a90935220555b6113806117dd565b50600b5461138e9082612159565b935050505090565b610b908282604051806020016040528060008152506117fe565b606060006113bd83611831565b600101905060008167ffffffffffffffff8111156113dd576113dd611d90565b6040519080825280601f01601f191660200182016040528015611407576020820181803683370190505b5090508181016020015b600019016f181899199a1a9b1b9c1cb0b131b232b360811b600a86061a8153600a850494508461144057611445565b611411565b509392505050565b60606000611459611909565b51116114745760405180602001604052806000815250610637565b61147c611909565b82600e60405160200161149193929190612171565b60405160208183030381529060405292915050565b6000806114b283610ba1565b9050806001600160a01b0316846001600160a01b031614806114f957506001600160a01b0380821660009081526005602090815260408083209388168352929052205460ff165b8061151d5750836001600160a01b0316611512846106cf565b6001600160a01b0316145b949350505050565b826001600160a01b031661153882610ba1565b6001600160a01b03161461155e5760405162461bcd60e51b815260040161076b90612235565b6001600160a01b0382166115c05760405162461bcd60e51b8152602060048201526024808201527f4552433732313a207472616e7366657220746f20746865207a65726f206164646044820152637265737360e01b606482015260840161076b565b826001600160a01b03166115d382610ba1565b6001600160a01b0316146115f95760405162461bcd60e51b815260040161076b90612235565b600081815260046020908152604080832080546001600160a01b03199081169091556001600160a01b0387811680865260038552838620805460001901905590871680865283862080546001019055868652600290945282852080549092168417909155905184937fddf252ad1be2c89b69c2b068fc378daa952ba7f163c4a11628f55a4df523b3ef91a4505050565b600780546001600160a01b038381166001600160a01b0319831681179093556040519116919082907f8be0079c531659141344cd1fd0a4f28419497f9722a3daafe3b4186f6b6457e090600090a35050565b816001600160a01b0316836001600160a01b0316141561173d5760405162461bcd60e51b815260206004820152601960248201527f4552433732313a20617070726f766520746f2063616c6c657200000000000000604482015260640161076b565b6001600160a01b03838116600081815260056020908152604080832094871680845294825291829020805460ff191686151590811790915591519182527f17307eab39ab6107e8899845ad3d59bd9653f200f220920489ca2b5937696c31910160405180910390a3505050565b6117b5848484611525565b6117c184848484611918565b610ef55760405162461bcd60e51b815260040161076b9061227a565b6000806117e960085490565b90506117f9600880546001019055565b919050565b6118088383611a16565b6118156000848484611918565b61080c5760405162461bcd60e51b815260040161076b9061227a565b60008072184f03e93ff9f4daa797ed6e38ed64bf6a1f0160401b83106118705772184f03e93ff9f4daa797ed6e38ed64bf6a1f0160401b830492506040015b6d04ee2d6d415b85acef8100000000831061189c576d04ee2d6d415b85acef8100000000830492506020015b662386f26fc1000083106118ba57662386f26fc10000830492506010015b6305f5e10083106118d2576305f5e100830492506008015b61271083106118e657612710830492506004015b606483106118f8576064830492506002015b600a83106106375760010192915050565b6060600d805461064c9061204b565b60006001600160a01b0384163b15611a0b57604051630a85bd0160e11b81526001600160a01b0385169063150b7a029061195c9033908990889088906004016122cc565b6020604051808303816000875af1925050508015611997575060408051601f3d908101601f1916820190925261199491810190612309565b60015b6119f1573d8080156119c5576040519150601f19603f3d011682016040523d82523d6000602084013e6119ca565b606091505b5080516119e95760405162461bcd60e51b815260040161076b9061227a565b805181602001fd5b6001600160e01b031916630a85bd0160e11b14905061151d565b506001949350505050565b6001600160a01b038216611a6c5760405162461bcd60e51b815260206004820181905260248201527f4552433732313a206d696e7420746f20746865207a65726f2061646472657373604482015260640161076b565b6000818152600260205260409020546001600160a01b031615611ad15760405162461bcd60e51b815260206004820152601c60248201527f4552433732313a20746f6b656e20616c7265616479206d696e74656400000000604482015260640161076b565b6000818152600260205260409020546001600160a01b031615611b365760405162461bcd60e51b815260206004820152601c60248201527f4552433732313a20746f6b656e20616c7265616479206d696e74656400000000604482015260640161076b565b6001600160a01b038216600081815260036020908152604080832080546001019055848352600290915280822080546001600160a01b0319168417905551839291907fddf252ad1be2c89b69c2b068fc378daa952ba7f163c4a11628f55a4df523b3ef908290a45050565b828054611bad9061204b565b90600052602060002090601f016020900481019282611bcf5760008555611c15565b82601f10611be857805160ff1916838001178555611c15565b82800160010185558215611c15579182015b82811115611c15578251825591602001919060010190611bfa565b50611c21929150611c25565b5090565b5b80821115611c215760008155600101611c26565b600060208284031215611c4c57600080fd5b5035919050565b6001600160e01b0319811681146105e857600080fd5b600060208284031215611c7b57600080fd5b8135611c8681611c53565b9392505050565b60005b83811015611ca8578181015183820152602001611c90565b83811115610ef55750506000910152565b60008151808452611cd1816020860160208601611c8d565b601f01601f19169290920160200192915050565b602081526000611c866020830184611cb9565b80356001600160a01b03811681146117f957600080fd5b60008060408385031215611d2257600080fd5b611d2b83611cf8565b946020939093013593505050565b600080600060608486031215611d4e57600080fd5b611d5784611cf8565b9250611d6560208501611cf8565b9150604084013590509250925092565b600060208284031215611d8757600080fd5b611c8682611cf8565b634e487b7160e01b600052604160045260246000fd5b600067ffffffffffffffff80841115611dc157611dc1611d90565b604051601f8501601f19908116603f01168101908282118183101715611de957611de9611d90565b81604052809350858152868686011115611e0257600080fd5b858560208301376000602087830101525050509392505050565b600060208284031215611e2e57600080fd5b813567ffffffffffffffff811115611e4557600080fd5b8201601f81018413611e5657600080fd5b61151d84823560208401611da6565b60006020808301818452808551808352604092508286019150828160051b87010184880160005b83811015611efa57888303603f19018552815180518452878101516001600160a01b031688850152868101518785015260608082015160a08287018190529190611ed883880182611cb9565b6080948501519790940196909652505094870194925090860190600101611e8c565b509098975050505050505050565b85815260018060a01b038516602082015283604082015260a060608201526000611f3560a0830185611cb9565b90508260808301529695505050505050565b803580151581146117f957600080fd5b60008060408385031215611f6a57600080fd5b611f7383611cf8565b9150611f8160208401611f47565b90509250929050565b60008060008060808587031215611fa057600080fd5b611fa985611cf8565b9350611fb760208601611cf8565b925060408501359150606085013567ffffffffffffffff811115611fda57600080fd5b8501601f81018713611feb57600080fd5b611ffa87823560208401611da6565b91505092959194509250565b60006020828403121561201857600080fd5b611c8682611f47565b6000806040838503121561203457600080fd5b61203d83611cf8565b9150611f8160208401611cf8565b600181811c9082168061205f57607f821691505b6020821081141561208057634e487b7160e01b600052602260045260246000fd5b50919050565b634e487b7160e01b600052601160045260246000fd5b60006000198214156120b0576120b0612086565b5060010190565b600082516120c9818460208701611c8d565b9190910192915050565b6020808252602d908201527f4552433732313a2063616c6c6572206973206e6f7420746f6b656e206f776e6560408201526c1c881bdc88185c1c1c9bdd9959609a1b606082015260800190565b60008282101561213257612132612086565b500390565b60008261215457634e487b7160e01b600052601260045260246000fd5b500690565b6000821982111561216c5761216c612086565b500190565b6000845160206121848285838a01611c8d565b8551918401916121978184848a01611c8d565b8554920191600090600181811c90808316806121b457607f831692505b8583108114156121d257634e487b7160e01b85526022600452602485fd5b8080156121e657600181146121f757612224565b60ff19851688528388019550612224565b60008b81526020902060005b8581101561221c5781548a820152908401908801612203565b505083880195505b50939b9a5050505050505050505050565b60208082526025908201527f4552433732313a207472616e736665722066726f6d20696e636f72726563742060408201526437bbb732b960d91b606082015260800190565b60208082526032908201527f4552433732313a207472616e7366657220746f206e6f6e20455243373231526560408201527131b2b4bb32b91034b6b83632b6b2b73a32b960711b606082015260800190565b6001600160a01b03858116825284166020820152604081018390526080606082018190526000906122ff90830184611cb9565b9695505050505050565b60006020828403121561231b57600080fd5b8151611c8681611c5356fea2646970667358221220343346d84acd00ad19fb1425c495a50f8504acbfa6dff87f805eb089becb69e464736f6c634300080b0033",
  "linkReferences": {},
  "deployedLinkReferences": {}
}