{
  "_format": "hh-sol-artifact-1",
  "contractName": "AwesomeNFT",
  "sourceName": "src/backend/contracts/AwesomeNFT.sol",
  "abi": [
    {
      "inputs": [
        {
          "internalType": "string",
          "name": "_name",
          "type": "string"
        },
        {
          "internalType": "string",
          "name": "_symbol",
          "type": "string"
        },
        {
          "internalType": "string",
          "name": "_uriPrefix",
          "type": "string"
        },
        {
          "internalType": "uint256",
          "name": "_totalNft",
          "type": "uint256"
        }
      ],
      "stateMutability": "nonpayable",
      "type": "constructor"
    },
    {
      "anonymous": false,
      "inputs": [
        {
          "indexed": true,
          "internalType": "address",
          "name": "owner",
          "type": "address"
        },
        {
          "indexed": true,
          "internalType": "address",
          "name": "approved",
          "type": "address"
        },
        {
          "indexed": true,
          "internalType": "uint256",
          "name": "tokenId",
          "type": "uint256"
        }
      ],
      "name": "Approval",
      "type": "event"
    },
    {
      "anonymous": false,
      "inputs": [
        {
          "indexed": true,
          "internalType": "address",
          "name": "owner",
          "type": "address"
        },
        {
          "indexed": true,
          "internalType": "address",
          "name": "operator",
          "type": "address"
        },
        {
          "indexed": false,
          "internalType": "bool",
          "name": "approved",
          "type": "bool"
        }
      ],
      "name": "ApprovalForAll",
      "type": "event"
    },
    {
      "anonymous": false,
      "inputs": [
        {
          "indexed": false,
          "internalType": "uint256",
          "name": "id",
          "type": "uint256"
        },
        {
          "indexed": true,
          "internalType": "address",
          "name": "buyer",
          "type": "address"
        },
        {
          "indexed": false,
          "internalType": "uint256",
          "name": "cost",
          "type": "uint256"
        },
        {
          "indexed": true,
          "internalType": "string",
          "name": "tokenURI",
          "type": "string"
        },
        {
          "indexed": false,
          "internalType": "uint256",
          "name": "timestamp",
          "type": "uint256"
        }
      ],
      "name": "Minted",
      "type": "event"
    },
    {
      "anonymous": false,
      "inputs": [
        {
          "indexed": true,
          "internalType": "address",
          "name": "previousOwner",
          "type": "address"
        },
        {
          "indexed": true,
          "internalType": "address",
          "name": "newOwner",
          "type": "address"
        }
      ],
      "name": "OwnershipTransferred",
      "type": "event"
    },
    {
      "anonymous": false,
      "inputs": [
        {
          "indexed": true,
          "internalType": "address",
          "name": "from",
          "type": "address"
        },
        {
          "indexed": true,
          "internalType": "address",
          "name": "to",
          "type": "address"
        },
        {
          "indexed": true,
          "internalType": "uint256",
          "name": "tokenId",
          "type": "uint256"
        }
      ],
      "name": "Transfer",
      "type": "event"
    },
    {
      "inputs": [
        {
          "internalType": "address",
          "name": "to",
          "type": "address"
        },
        {
          "internalType": "uint256",
          "name": "tokenId",
          "type": "uint256"
        }
      ],
      "name": "approve",
      "outputs": [],
      "stateMutability": "nonpayable",
      "type": "function"
    },
    {
      "inputs": [
        {
          "internalType": "address",
          "name": "owner",
          "type": "address"
        }
      ],
      "name": "balanceOf",
      "outputs": [
        {
          "internalType": "uint256",
          "name": "",
          "type": "uint256"
        }
      ],
      "stateMutability": "view",
      "type": "function"
    },
    {
      "inputs": [],
      "name": "cost",
      "outputs": [
        {
          "internalType": "uint256",
          "name": "",
          "type": "uint256"
        }
      ],
      "stateMutability": "view",
      "type": "function"
    },
    {
      "inputs": [
        {
          "internalType": "uint256",
          "name": "tokenId",
          "type": "uint256"
        }
      ],
      "name": "getApproved",
      "outputs": [
        {
          "internalType": "address",
          "name": "",
          "type": "address"
        }
      ],
      "stateMutability": "view",
      "type": "function"
    },
    {
      "inputs": [],
      "name": "getBalance",
      "outputs": [
        {
          "internalType": "uint256",
          "name": "",
          "type": "uint256"
        }
      ],
      "stateMutability": "view",
      "type": "function"
    },
    {
      "inputs": [],
      "name": "getMintedNFTs",
      "outputs": [
        {
          "components": [
            {
              "internalType": "uint256",
              "name": "id",
              "type": "uint256"
            },
            {
              "internalType": "address",
              "name": "buyer",
              "type": "address"
            },
            {
              "internalType": "uint256",
              "name": "cost",
              "type": "uint256"
            },
            {
              "internalType": "string",
              "name": "tokenUri",
              "type": "string"
            },
            {
              "internalType": "uint256",
              "name": "timestamp",
              "type": "uint256"
            }
          ],
          "internalType": "struct AwesomeNFT.MintedStruct[]",
          "name": "",
          "type": "tuple[]"
        }
      ],
      "stateMutability": "view",
      "type": "function"
    },
    {
      "inputs": [
        {
          "internalType": "address",
          "name": "owner",
          "type": "address"
        },
        {
          "internalType": "address",
          "name": "operator",
          "type": "address"
        }
      ],
      "name": "isApprovedForAll",
      "outputs": [
        {
          "internalType": "bool",
          "name": "",
          "type": "bool"
        }
      ],
      "stateMutability": "view",
      "type": "function"
    },
    {
      "inputs": [],
      "name": "maxSupply",
      "outputs": [
        {
          "internalType": "uint256",
          "name": "",
          "type": "uint256"
        }
      ],
      "stateMutability": "view",
      "type": "function"
    },
    {
      "inputs": [],
      "name": "mint",
      "outputs": [],
      "stateMutability": "payable",
      "type": "function"
    },
    {
      "inputs": [
        {
          "internalType": "uint256",
          "name": "",
          "type": "uint256"
        }
      ],
      "name": "minted",
      "outputs": [
        {
          "internalType": "uint256",
          "name": "id",
          "type": "uint256"
        },
        {
          "internalType": "address",
          "name": "buyer",
          "type": "address"
        },
        {
          "internalType": "uint256",
          "name": "cost",
          "type": "uint256"
        },
        {
          "internalType": "string",
          "name": "tokenUri",
          "type": "string"
        },
        {
          "internalType": "uint256",
          "name": "timestamp",
          "type": "uint256"
        }
      ],
      "stateMutability": "view",
      "type": "function"
    },
    {
      "inputs": [],
      "name": "name",
      "outputs": [
        {
          "internalType": "string",
          "name": "",
          "type": "string"
        }
      ],
      "stateMutability": "view",
      "type": "function"
    },
    {
      "inputs": [],
      "name": "owner",
      "outputs": [
        {
          "internalType": "address",
          "name": "",
          "type": "address"
        }
      ],
      "stateMutability": "view",
      "type": "function"
    },
    {
      "inputs": [
        {
          "internalType": "uint256",
          "name": "tokenId",
          "type": "uint256"
        }
      ],
      "name": "ownerOf",
      "outputs": [
        {
          "internalType": "address",
          "name": "",
          "type": "address"
        }
      ],
      "stateMutability": "view",
      "type": "function"
    },
    {
      "inputs": [],
      "name": "paused",
      "outputs": [
        {
          "internalType": "bool",
          "name": "",
          "type": "bool"
        }
      ],
      "stateMutability": "view",
      "type": "function"
    },
    {
      "inputs": [],
      "name": "renounceOwnership",
      "outputs": [],
      "stateMutability": "nonpayable",
      "type": "function"
    },
    {
      "inputs": [
        {
          "internalType": "address",
          "name": "from",
          "type": "address"
        },
        {
          "internalType": "address",
          "name": "to",
          "type": "address"
        },
        {
          "internalType": "uint256",
          "name": "tokenId",
          "type": "uint256"
        }
      ],
      "name": "safeTransferFrom",
      "outputs": [],
      "stateMutability": "nonpayable",
      "type": "function"
    },
    {
      "inputs": [
        {
          "internalType": "address",
          "name": "from",
          "type": "address"
        },
        {
          "internalType": "address",
          "name": "to",
          "type": "address"
        },
        {
          "internalType": "uint256",
          "name": "tokenId",
          "type": "uint256"
        },
        {
          "internalType": "bytes",
          "name": "data",
          "type": "bytes"
        }
      ],
      "name": "safeTransferFrom",
      "outputs": [],
      "stateMutability": "nonpayable",
      "type": "function"
    },
    {
      "inputs": [
        {
          "internalType": "address",
          "name": "operator",
          "type": "address"
        },
        {
          "internalType": "bool",
          "name": "approved",
          "type": "bool"
        }
      ],
      "name": "setApprovalForAll",
      "outputs": [],
      "stateMutability": "nonpayable",
      "type": "function"
    },
    {
      "inputs": [
        {
          "internalType": "string",
          "name": "_uriPrefix",
          "type": "string"
        }
      ],
      "name": "setBaseURI",
      "outputs": [],
      "stateMutability": "nonpayable",
      "type": "function"
    },
    {
      "inputs": [
        {
          "internalType": "bool",
          "name": "_state",
          "type": "bool"
        }
      ],
      "name": "setPause",
      "outputs": [],
      "stateMutability": "nonpayable",
      "type": "function"
    },
    {
      "inputs": [
        {
          "internalType": "uint256",
          "name": "_totalNft",
          "type": "uint256"
        }
      ],
      "name": "setTotalNft",
      "outputs": [],
      "stateMutability": "nonpayable",
      "type": "function"
    },
    {
      "inputs": [
        {
          "internalType": "bytes4",
          "name": "interfaceId",
          "type": "bytes4"
        }
      ],
      "name": "supportsInterface",
      "outputs": [
        {
          "internalType": "bool",
          "name": "",
          "type": "bool"
        }
      ],
      "stateMutability": "view",
      "type": "function"
    },
    {
      "inputs": [],
      "name": "symbol",
      "outputs": [
        {
          "internalType": "string",
          "name": "",
          "type": "string"
        }
      ],
      "stateMutability": "view",
      "type": "function"
    },
    {
      "inputs": [
        {
          "internalType": "uint256",
          "name": "_tokenId",
          "type": "uint256"
        }
      ],
      "name": "tokenURI",
      "outputs": [
        {
          "internalType": "string",
          "name": "",
          "type": "string"
        }
      ],
      "stateMutability": "view",
      "type": "function"
    },
    {
      "inputs": [],
      "name": "totalNft",
      "outputs": [
        {
          "internalType": "uint256",
          "name": "",
          "type": "uint256"
        }
      ],
      "stateMutability": "view",
      "type": "function"
    },
    {
      "inputs": [
        {
          "internalType": "address",
          "name": "from",
          "type": "address"
        },
        {
          "internalType": "address",
          "name": "to",
          "type": "address"
        },
        {
          "internalType": "uint256",
          "name": "tokenId",
          "type": "uint256"
        }
      ],
      "name": "transferFrom",
      "outputs": [],
      "stateMutability": "nonpayable",
      "type": "function"
    },
    {
      "inputs": [
        {
          "internalType": "address",
          "name": "newOwner",
          "type": "address"
        }
      ],
      "name": "transferOwnership",
      "outputs": [],
      "stateMutability": "nonpayable",
      "type": "function"
    },
    {
      "inputs": [],
      "name": "uriPrefix",
      "outputs": [
        {
          "internalType": "string",
          "name": "",
          "type": "string"
        }
      ],
      "stateMutability": "view",
      "type": "function"
    },
    {
      "inputs": [],
      "name": "uriSuffix",
      "outputs": [
        {
          "internalType": "string",
          "name": "",
          "type": "string"
        }
      ],
      "stateMutability": "view",
      "type": "function"
    }
  ],
  "bytecode": "0x60c06040526005608081905264173539b7b760d91b60a09081526200002891600a9190620001c9565b5066038d7ea4c68000600b556103e8600c55600e805460ff191690553480156200005157600080fd5b50604051620023f7380380620023f783398101604081905262000074916200033c565b8351849084906200008d906000906020850190620001c9565b508051620000a3906001906020840190620001c9565b505050620000c0620000ba620000e060201b60201c565b620000e4565b620000cb8262000136565b620000d68162000159565b5050505062000412565b3390565b600780546001600160a01b038381166001600160a01b0319831681179093556040519116919082907f8be0079c531659141344cd1fd0a4f28419497f9722a3daafe3b4186f6b6457e090600090a35050565b6200014062000168565b805162000155906009906020840190620001c9565b5050565b6200016362000168565b600d55565b6007546001600160a01b03163314620001c75760405162461bcd60e51b815260206004820181905260248201527f4f776e61626c653a2063616c6c6572206973206e6f7420746865206f776e6572604482015260640160405180910390fd5b565b828054620001d790620003d5565b90600052602060002090601f016020900481019282620001fb576000855562000246565b82601f106200021657805160ff191683800117855562000246565b8280016001018555821562000246579182015b828111156200024657825182559160200191906001019062000229565b506200025492915062000258565b5090565b5b8082111562000254576000815560010162000259565b634e487b7160e01b600052604160045260246000fd5b600082601f8301126200029757600080fd5b81516001600160401b0380821115620002b457620002b46200026f565b604051601f8301601f19908116603f01168101908282118183101715620002df57620002df6200026f565b81604052838152602092508683858801011115620002fc57600080fd5b600091505b8382101562000320578582018301518183018401529082019062000301565b83821115620003325760008385830101525b9695505050505050565b600080600080608085870312156200035357600080fd5b84516001600160401b03808211156200036b57600080fd5b620003798883890162000285565b955060208701519150808211156200039057600080fd5b6200039e8883890162000285565b94506040870151915080821115620003b557600080fd5b50620003c48782880162000285565b606096909601519497939650505050565b600181811c90821680620003ea57607f821691505b602082108114156200040c57634e487b7160e01b600052602260045260246000fd5b50919050565b611fd580620004226000396000f3fe6080604052600436106101c25760003560e01c806362b99ad4116100f757806395d89b4111610095578063c87b56dd11610064578063c87b56dd146104ce578063d5abeb01146104ee578063e985e9c514610504578063f2fde38b1461054d57600080fd5b806395d89b4114610459578063a22cb4651461046e578063b88d4fde1461048e578063bedb86fb146104ae57600080fd5b8063715018a6116100d1578063715018a6146103d357806377bf44ea146103e85780637dc0bf3f1461040a5780638da5cb5b1461043b57600080fd5b806362b99ad41461037e5780636352211e1461039357806370a08231146103b357600080fd5b806323b872dd11610164578063490c06c11161013e578063490c06c1146103195780635503a0e81461032f57806355f804b3146103445780635c975abb1461036457600080fd5b806323b872dd146102b95780633629bf44146102d957806342842e0e146102f957600080fd5b8063095ea7b3116101a0578063095ea7b31461025657806312065fe0146102785780631249c58b1461029b57806313faede6146102a357600080fd5b806301ffc9a7146101c757806306fdde03146101fc578063081812fc1461021e575b600080fd5b3480156101d357600080fd5b506101e76101e2366004611905565b61056d565b60405190151581526020015b60405180910390f35b34801561020857600080fd5b506102116105bf565b6040516101f39190611981565b34801561022a57600080fd5b5061023e610239366004611994565b610651565b6040516001600160a01b0390911681526020016101f3565b34801561026257600080fd5b506102766102713660046119c9565b610678565b005b34801561028457600080fd5b5061028d610793565b6040519081526020016101f3565b6102766107a2565b3480156102af57600080fd5b5061028d600b5481565b3480156102c557600080fd5b506102766102d43660046119f3565b6109c9565b3480156102e557600080fd5b506102766102f4366004611994565b6109fa565b34801561030557600080fd5b506102766103143660046119f3565b610a07565b34801561032557600080fd5b5061028d600d5481565b34801561033b57600080fd5b50610211610a22565b34801561035057600080fd5b5061027661035f366004611abb565b610ab0565b34801561037057600080fd5b50600e546101e79060ff1681565b34801561038a57600080fd5b50610211610acf565b34801561039f57600080fd5b5061023e6103ae366004611994565b610adc565b3480156103bf57600080fd5b5061028d6103ce366004611b04565b610b3c565b3480156103df57600080fd5b50610276610bc2565b3480156103f457600080fd5b506103fd610bd6565b6040516101f39190611b1f565b34801561041657600080fd5b5061042a610425366004611994565b610cfc565b6040516101f3959493929190611bc2565b34801561044757600080fd5b506007546001600160a01b031661023e565b34801561046557600080fd5b50610211610dd4565b34801561047a57600080fd5b50610276610489366004611c11565b610de3565b34801561049a57600080fd5b506102766104a9366004611c44565b610dee565b3480156104ba57600080fd5b506102766104c9366004611cc0565b610e26565b3480156104da57600080fd5b506102116104e9366004611994565b610e41565b3480156104fa57600080fd5b5061028d600c5481565b34801561051057600080fd5b506101e761051f366004611cdb565b6001600160a01b03918216600090815260056020908152604080832093909416825291909152205460ff1690565b34801561055957600080fd5b50610276610568366004611b04565b610ecc565b60006001600160e01b031982166380ac58cd60e01b148061059e57506001600160e01b03198216635b5e139f60e01b145b806105b957506301ffc9a760e01b6001600160e01b03198316145b92915050565b6060600080546105ce90611d05565b80601f01602080910402602001604051908101604052809291908181526020018280546105fa90611d05565b80156106475780601f1061061c57610100808354040283529160200191610647565b820191906000526020600020905b81548152906001019060200180831161062a57829003601f168201915b5050505050905090565b600061065c82610f45565b506000908152600460205260409020546001600160a01b031690565b600061068382610adc565b9050806001600160a01b0316836001600160a01b031614156106f65760405162461bcd60e51b815260206004820152602160248201527f4552433732313a20617070726f76616c20746f2063757272656e74206f776e656044820152603960f91b60648201526084015b60405180910390fd5b336001600160a01b03821614806107125750610712813361051f565b6107845760405162461bcd60e51b815260206004820152603d60248201527f4552433732313a20617070726f76652063616c6c6572206973206e6f7420746f60448201527f6b656e206f776e6572206f7220617070726f76656420666f7220616c6c00000060648201526084016106ed565b61078e8383610fa4565b505050565b600061079d611012565b504790565b600e5460ff16156107f55760405162461bcd60e51b815260206004820152601760248201527f4e46547320756e646572206d61696e74656e616e63652100000000000000000060448201526064016106ed565b610803600880546001019055565b600061080e60085490565b9050600c548111156108325760405162461bcd60e51b81526004016106ed90611d40565b600d548111156108545760405162461bcd60e51b81526004016106ed90611d40565b600b543410156108a65760405162461bcd60e51b815260206004820152601a60248201527f457468657220746f6f206c6f7720666f72206d696e74696e672100000000000060448201526064016106ed565b6108b0338261106c565b600f6040518060a00160405280838152602001336001600160a01b031681526020013481526020016108e96108e485611086565b611123565b81524260209182015282546001808201855560009485529382902083516005909202019081558282015193810180546001600160a01b0319166001600160a01b039095169490941790935560408201516002840155606082015180519293926109589260038501920190611856565b506080820151816004015550506109716108e482611086565b60405161097e9190611d81565b6040805191829003822083835234602084015242838301529051909133917fb075618f3bda741d5eae1b13373e9ed95e201c619fce29af0642c61a1c491c089181900360600190a350565b6109d3338261117c565b6109ef5760405162461bcd60e51b81526004016106ed90611d9d565b61078e8383836111fb565b610a02611012565b600d55565b61078e83838360405180602001604052806000815250610dee565b600a8054610a2f90611d05565b80601f0160208091040260200160405190810160405280929190818152602001828054610a5b90611d05565b8015610aa85780601f10610a7d57610100808354040283529160200191610aa8565b820191906000526020600020905b815481529060010190602001808311610a8b57829003601f168201915b505050505081565b610ab8611012565b8051610acb906009906020840190611856565b5050565b60098054610a2f90611d05565b6000818152600260205260408120546001600160a01b0316806105b95760405162461bcd60e51b8152602060048201526018602482015277115490cdcc8c4e881a5b9d985b1a59081d1bdad95b88125160421b60448201526064016106ed565b60006001600160a01b038216610ba65760405162461bcd60e51b815260206004820152602960248201527f4552433732313a2061646472657373207a65726f206973206e6f7420612076616044820152683634b21037bbb732b960b91b60648201526084016106ed565b506001600160a01b031660009081526003602052604090205490565b610bca611012565b610bd4600061135f565b565b6060600f805480602002602001604051908101604052809291908181526020016000905b82821015610cf35760008481526020908190206040805160a081018252600586029092018054835260018101546001600160a01b031693830193909352600283015490820152600382018054919291606084019190610c5890611d05565b80601f0160208091040260200160405190810160405280929190818152602001828054610c8490611d05565b8015610cd15780601f10610ca657610100808354040283529160200191610cd1565b820191906000526020600020905b815481529060010190602001808311610cb457829003601f168201915b5050505050815260200160048201548152505081526020019060010190610bfa565b50505050905090565b600f8181548110610d0c57600080fd5b600091825260209091206005909102018054600182015460028301546003840180549395506001600160a01b03909216939092909190610d4b90611d05565b80601f0160208091040260200160405190810160405280929190818152602001828054610d7790611d05565b8015610dc45780601f10610d9957610100808354040283529160200191610dc4565b820191906000526020600020905b815481529060010190602001808311610da757829003601f168201915b5050505050908060040154905085565b6060600180546105ce90611d05565b610acb3383836113b1565b610df8338361117c565b610e145760405162461bcd60e51b81526004016106ed90611d9d565b610e2084848484611480565b50505050565b610e2e611012565b600e805460ff1916911515919091179055565b6000818152600260205260409020546060906001600160a01b0316610ec05760405162461bcd60e51b815260206004820152602f60248201527f4552433732314d657461646174613a2055524920717565727920666f72206e6f60448201526e3732bc34b9ba32b73a103a37b5b2b760891b60648201526084016106ed565b6105b96108e483611086565b610ed4611012565b6001600160a01b038116610f395760405162461bcd60e51b815260206004820152602660248201527f4f776e61626c653a206e6577206f776e657220697320746865207a65726f206160448201526564647265737360d01b60648201526084016106ed565b610f428161135f565b50565b6000818152600260205260409020546001600160a01b0316610f425760405162461bcd60e51b8152602060048201526018602482015277115490cdcc8c4e881a5b9d985b1a59081d1bdad95b88125160421b60448201526064016106ed565b600081815260046020526040902080546001600160a01b0319166001600160a01b0384169081179091558190610fd982610adc565b6001600160a01b03167f8c5be1e5ebec7d5bd14f71427d1e84f3dd0314c0f7b2291e5b200ac8c7c3b92560405160405180910390a45050565b6007546001600160a01b03163314610bd45760405162461bcd60e51b815260206004820181905260248201527f4f776e61626c653a2063616c6c6572206973206e6f7420746865206f776e657260448201526064016106ed565b610acb8282604051806020016040528060008152506114b3565b60606000611093836114e6565b600101905060008167ffffffffffffffff8111156110b3576110b3611a2f565b6040519080825280601f01601f1916602001820160405280156110dd576020820181803683370190505b5090508181016020015b600019016f181899199a1a9b1b9c1cb0b131b232b360811b600a86061a8153600a85049450846111165761111b565b6110e7565b509392505050565b6060600061112f6115be565b511161114a57604051806020016040528060008152506105b9565b6111526115be565b82600a60405160200161116793929190611dea565b60405160208183030381529060405292915050565b60008061118883610adc565b9050806001600160a01b0316846001600160a01b031614806111cf57506001600160a01b0380821660009081526005602090815260408083209388168352929052205460ff165b806111f35750836001600160a01b03166111e884610651565b6001600160a01b0316145b949350505050565b826001600160a01b031661120e82610adc565b6001600160a01b0316146112345760405162461bcd60e51b81526004016106ed90611eae565b6001600160a01b0382166112965760405162461bcd60e51b8152602060048201526024808201527f4552433732313a207472616e7366657220746f20746865207a65726f206164646044820152637265737360e01b60648201526084016106ed565b826001600160a01b03166112a982610adc565b6001600160a01b0316146112cf5760405162461bcd60e51b81526004016106ed90611eae565b600081815260046020908152604080832080546001600160a01b03199081169091556001600160a01b0387811680865260038552838620805460001901905590871680865283862080546001019055868652600290945282852080549092168417909155905184937fddf252ad1be2c89b69c2b068fc378daa952ba7f163c4a11628f55a4df523b3ef91a4505050565b600780546001600160a01b038381166001600160a01b0319831681179093556040519116919082907f8be0079c531659141344cd1fd0a4f28419497f9722a3daafe3b4186f6b6457e090600090a35050565b816001600160a01b0316836001600160a01b031614156114135760405162461bcd60e51b815260206004820152601960248201527f4552433732313a20617070726f766520746f2063616c6c65720000000000000060448201526064016106ed565b6001600160a01b03838116600081815260056020908152604080832094871680845294825291829020805460ff191686151590811790915591519182527f17307eab39ab6107e8899845ad3d59bd9653f200f220920489ca2b5937696c31910160405180910390a3505050565b61148b8484846111fb565b611497848484846115cd565b610e205760405162461bcd60e51b81526004016106ed90611ef3565b6114bd83836116cb565b6114ca60008484846115cd565b61078e5760405162461bcd60e51b81526004016106ed90611ef3565b60008072184f03e93ff9f4daa797ed6e38ed64bf6a1f0160401b83106115255772184f03e93ff9f4daa797ed6e38ed64bf6a1f0160401b830492506040015b6d04ee2d6d415b85acef81000000008310611551576d04ee2d6d415b85acef8100000000830492506020015b662386f26fc10000831061156f57662386f26fc10000830492506010015b6305f5e1008310611587576305f5e100830492506008015b612710831061159b57612710830492506004015b606483106115ad576064830492506002015b600a83106105b95760010192915050565b6060600980546105ce90611d05565b60006001600160a01b0384163b156116c057604051630a85bd0160e11b81526001600160a01b0385169063150b7a0290611611903390899088908890600401611f45565b6020604051808303816000875af192505050801561164c575060408051601f3d908101601f1916820190925261164991810190611f82565b60015b6116a6573d80801561167a576040519150601f19603f3d011682016040523d82523d6000602084013e61167f565b606091505b50805161169e5760405162461bcd60e51b81526004016106ed90611ef3565b805181602001fd5b6001600160e01b031916630a85bd0160e11b1490506111f3565b506001949350505050565b6001600160a01b0382166117215760405162461bcd60e51b815260206004820181905260248201527f4552433732313a206d696e7420746f20746865207a65726f206164647265737360448201526064016106ed565b6000818152600260205260409020546001600160a01b0316156117865760405162461bcd60e51b815260206004820152601c60248201527f4552433732313a20746f6b656e20616c7265616479206d696e7465640000000060448201526064016106ed565b6000818152600260205260409020546001600160a01b0316156117eb5760405162461bcd60e51b815260206004820152601c60248201527f4552433732313a20746f6b656e20616c7265616479206d696e7465640000000060448201526064016106ed565b6001600160a01b038216600081815260036020908152604080832080546001019055848352600290915280822080546001600160a01b0319168417905551839291907fddf252ad1be2c89b69c2b068fc378daa952ba7f163c4a11628f55a4df523b3ef908290a45050565b82805461186290611d05565b90600052602060002090601f01602090048101928261188457600085556118ca565b82601f1061189d57805160ff19168380011785556118ca565b828001600101855582156118ca579182015b828111156118ca5782518255916020019190600101906118af565b506118d69291506118da565b5090565b5b808211156118d657600081556001016118db565b6001600160e01b031981168114610f4257600080fd5b60006020828403121561191757600080fd5b8135611922816118ef565b9392505050565b60005b8381101561194457818101518382015260200161192c565b83811115610e205750506000910152565b6000815180845261196d816020860160208601611929565b601f01601f19169290920160200192915050565b6020815260006119226020830184611955565b6000602082840312156119a657600080fd5b5035919050565b80356001600160a01b03811681146119c457600080fd5b919050565b600080604083850312156119dc57600080fd5b6119e5836119ad565b946020939093013593505050565b600080600060608486031215611a0857600080fd5b611a11846119ad565b9250611a1f602085016119ad565b9150604084013590509250925092565b634e487b7160e01b600052604160045260246000fd5b600067ffffffffffffffff80841115611a6057611a60611a2f565b604051601f8501601f19908116603f01168101908282118183101715611a8857611a88611a2f565b81604052809350858152868686011115611aa157600080fd5b858560208301376000602087830101525050509392505050565b600060208284031215611acd57600080fd5b813567ffffffffffffffff811115611ae457600080fd5b8201601f81018413611af557600080fd5b6111f384823560208401611a45565b600060208284031215611b1657600080fd5b611922826119ad565b60006020808301818452808551808352604092508286019150828160051b87010184880160005b83811015611bb457888303603f19018552815180518452878101516001600160a01b031688850152868101518785015260608082015160a08287018190529190611b9283880182611955565b6080948501519790940196909652505094870194925090860190600101611b46565b509098975050505050505050565b85815260018060a01b038516602082015283604082015260a060608201526000611bef60a0830185611955565b90508260808301529695505050505050565b803580151581146119c457600080fd5b60008060408385031215611c2457600080fd5b611c2d836119ad565b9150611c3b60208401611c01565b90509250929050565b60008060008060808587031215611c5a57600080fd5b611c63856119ad565b9350611c71602086016119ad565b925060408501359150606085013567ffffffffffffffff811115611c9457600080fd5b8501601f81018713611ca557600080fd5b611cb487823560208401611a45565b91505092959194509250565b600060208284031215611cd257600080fd5b61192282611c01565b60008060408385031215611cee57600080fd5b611cf7836119ad565b9150611c3b602084016119ad565b600181811c90821680611d1957607f821691505b60208210811415611d3a57634e487b7160e01b600052602260045260246000fd5b50919050565b60208082526021908201527f536f7272792c20616c6c204e4654732068617665206265656e206d696e7465646040820152602160f81b606082015260800190565b60008251611d93818460208701611929565b9190910192915050565b6020808252602d908201527f4552433732313a2063616c6c6572206973206e6f7420746f6b656e206f776e6560408201526c1c881bdc88185c1c1c9bdd9959609a1b606082015260800190565b600084516020611dfd8285838a01611929565b855191840191611e108184848a01611929565b8554920191600090600181811c9080831680611e2d57607f831692505b858310811415611e4b57634e487b7160e01b85526022600452602485fd5b808015611e5f5760018114611e7057611e9d565b60ff19851688528388019550611e9d565b60008b81526020902060005b85811015611e955781548a820152908401908801611e7c565b505083880195505b50939b9a5050505050505050505050565b60208082526025908201527f4552433732313a207472616e736665722066726f6d20696e636f72726563742060408201526437bbb732b960d91b606082015260800190565b60208082526032908201527f4552433732313a207472616e7366657220746f206e6f6e20455243373231526560408201527131b2b4bb32b91034b6b83632b6b2b73a32b960711b606082015260800190565b6001600160a01b0385811682528416602082015260408101839052608060608201819052600090611f7890830184611955565b9695505050505050565b600060208284031215611f9457600080fd5b8151611922816118ef56fea264697066735822122053e0bbaa4bbc0a1cd4191b83aaf675eea7078e2c4e011323c27b241c9e9b5b8264736f6c634300080b0033",
  "linkReferences": {},
  "deployedLinkReferences": {}
}