{
  "_format": "hh-sol-artifact-1",
  "contractName": "MyNFT",
  "sourceName": "src/contracts/MyNFT.sol",
  "abi": [
    {
      "inputs": [
        {
          "internalType": "string",
          "name": "_name",
          "type": "string"
        },
        {
          "internalType": "string",
          "name": "_symbol",
          "type": "string"
        }
      ],
      "stateMutability": "nonpayable",
      "type": "constructor"
    },
    {
      "anonymous": false,
      "inputs": [
        {
          "indexed": true,
          "internalType": "address",
          "name": "owner",
          "type": "address"
        },
        {
          "indexed": true,
          "internalType": "address",
          "name": "approved",
          "type": "address"
        },
        {
          "indexed": true,
          "internalType": "uint256",
          "name": "tokenId",
          "type": "uint256"
        }
      ],
      "name": "Approval",
      "type": "event"
    },
    {
      "anonymous": false,
      "inputs": [
        {
          "indexed": true,
          "internalType": "address",
          "name": "owner",
          "type": "address"
        },
        {
          "indexed": true,
          "internalType": "address",
          "name": "operator",
          "type": "address"
        },
        {
          "indexed": false,
          "internalType": "bool",
          "name": "approved",
          "type": "bool"
        }
      ],
      "name": "ApprovalForAll",
      "type": "event"
    },
    {
      "anonymous": false,
      "inputs": [
        {
          "indexed": true,
          "internalType": "address",
          "name": "previousOwner",
          "type": "address"
        },
        {
          "indexed": true,
          "internalType": "address",
          "name": "newOwner",
          "type": "address"
        }
      ],
      "name": "OwnershipTransferred",
      "type": "event"
    },
    {
      "anonymous": false,
      "inputs": [
        {
          "indexed": true,
          "internalType": "address",
          "name": "from",
          "type": "address"
        },
        {
          "indexed": true,
          "internalType": "address",
          "name": "to",
          "type": "address"
        },
        {
          "indexed": true,
          "internalType": "uint256",
          "name": "tokenId",
          "type": "uint256"
        }
      ],
      "name": "Transfer",
      "type": "event"
    },
    {
      "inputs": [
        {
          "internalType": "address",
          "name": "to",
          "type": "address"
        },
        {
          "internalType": "uint256",
          "name": "tokenId",
          "type": "uint256"
        }
      ],
      "name": "approve",
      "outputs": [],
      "stateMutability": "nonpayable",
      "type": "function"
    },
    {
      "inputs": [
        {
          "internalType": "address",
          "name": "owner",
          "type": "address"
        }
      ],
      "name": "balanceOf",
      "outputs": [
        {
          "internalType": "uint256",
          "name": "",
          "type": "uint256"
        }
      ],
      "stateMutability": "view",
      "type": "function"
    },
    {
      "inputs": [],
      "name": "cost",
      "outputs": [
        {
          "internalType": "uint256",
          "name": "",
          "type": "uint256"
        }
      ],
      "stateMutability": "view",
      "type": "function"
    },
    {
      "inputs": [
        {
          "internalType": "uint256",
          "name": "tokenId",
          "type": "uint256"
        }
      ],
      "name": "getApproved",
      "outputs": [
        {
          "internalType": "address",
          "name": "",
          "type": "address"
        }
      ],
      "stateMutability": "view",
      "type": "function"
    },
    {
      "inputs": [
        {
          "internalType": "address",
          "name": "owner",
          "type": "address"
        },
        {
          "internalType": "address",
          "name": "operator",
          "type": "address"
        }
      ],
      "name": "isApprovedForAll",
      "outputs": [
        {
          "internalType": "bool",
          "name": "",
          "type": "bool"
        }
      ],
      "stateMutability": "view",
      "type": "function"
    },
    {
      "inputs": [],
      "name": "maxSupply",
      "outputs": [
        {
          "internalType": "uint256",
          "name": "",
          "type": "uint256"
        }
      ],
      "stateMutability": "view",
      "type": "function"
    },
    {
      "inputs": [],
      "name": "mint",
      "outputs": [],
      "stateMutability": "payable",
      "type": "function"
    },
    {
      "inputs": [],
      "name": "name",
      "outputs": [
        {
          "internalType": "string",
          "name": "",
          "type": "string"
        }
      ],
      "stateMutability": "view",
      "type": "function"
    },
    {
      "inputs": [],
      "name": "owner",
      "outputs": [
        {
          "internalType": "address",
          "name": "",
          "type": "address"
        }
      ],
      "stateMutability": "view",
      "type": "function"
    },
    {
      "inputs": [
        {
          "internalType": "uint256",
          "name": "tokenId",
          "type": "uint256"
        }
      ],
      "name": "ownerOf",
      "outputs": [
        {
          "internalType": "address",
          "name": "",
          "type": "address"
        }
      ],
      "stateMutability": "view",
      "type": "function"
    },
    {
      "inputs": [],
      "name": "renounceOwnership",
      "outputs": [],
      "stateMutability": "nonpayable",
      "type": "function"
    },
    {
      "inputs": [
        {
          "internalType": "address",
          "name": "from",
          "type": "address"
        },
        {
          "internalType": "address",
          "name": "to",
          "type": "address"
        },
        {
          "internalType": "uint256",
          "name": "tokenId",
          "type": "uint256"
        }
      ],
      "name": "safeTransferFrom",
      "outputs": [],
      "stateMutability": "nonpayable",
      "type": "function"
    },
    {
      "inputs": [
        {
          "internalType": "address",
          "name": "from",
          "type": "address"
        },
        {
          "internalType": "address",
          "name": "to",
          "type": "address"
        },
        {
          "internalType": "uint256",
          "name": "tokenId",
          "type": "uint256"
        },
        {
          "internalType": "bytes",
          "name": "data",
          "type": "bytes"
        }
      ],
      "name": "safeTransferFrom",
      "outputs": [],
      "stateMutability": "nonpayable",
      "type": "function"
    },
    {
      "inputs": [
        {
          "internalType": "address",
          "name": "operator",
          "type": "address"
        },
        {
          "internalType": "bool",
          "name": "approved",
          "type": "bool"
        }
      ],
      "name": "setApprovalForAll",
      "outputs": [],
      "stateMutability": "nonpayable",
      "type": "function"
    },
    {
      "inputs": [
        {
          "internalType": "bytes4",
          "name": "interfaceId",
          "type": "bytes4"
        }
      ],
      "name": "supportsInterface",
      "outputs": [
        {
          "internalType": "bool",
          "name": "",
          "type": "bool"
        }
      ],
      "stateMutability": "view",
      "type": "function"
    },
    {
      "inputs": [],
      "name": "symbol",
      "outputs": [
        {
          "internalType": "string",
          "name": "",
          "type": "string"
        }
      ],
      "stateMutability": "view",
      "type": "function"
    },
    {
      "inputs": [
        {
          "internalType": "uint256",
          "name": "index",
          "type": "uint256"
        }
      ],
      "name": "tokenByIndex",
      "outputs": [
        {
          "internalType": "uint256",
          "name": "",
          "type": "uint256"
        }
      ],
      "stateMutability": "view",
      "type": "function"
    },
    {
      "inputs": [
        {
          "internalType": "address",
          "name": "owner",
          "type": "address"
        },
        {
          "internalType": "uint256",
          "name": "index",
          "type": "uint256"
        }
      ],
      "name": "tokenOfOwnerByIndex",
      "outputs": [
        {
          "internalType": "uint256",
          "name": "",
          "type": "uint256"
        }
      ],
      "stateMutability": "view",
      "type": "function"
    },
    {
      "inputs": [
        {
          "internalType": "uint256",
          "name": "tokenId",
          "type": "uint256"
        }
      ],
      "name": "tokenURI",
      "outputs": [
        {
          "internalType": "string",
          "name": "",
          "type": "string"
        }
      ],
      "stateMutability": "view",
      "type": "function"
    },
    {
      "inputs": [],
      "name": "totalSupply",
      "outputs": [
        {
          "internalType": "uint256",
          "name": "",
          "type": "uint256"
        }
      ],
      "stateMutability": "view",
      "type": "function"
    },
    {
      "inputs": [
        {
          "internalType": "address",
          "name": "from",
          "type": "address"
        },
        {
          "internalType": "address",
          "name": "to",
          "type": "address"
        },
        {
          "internalType": "uint256",
          "name": "tokenId",
          "type": "uint256"
        }
      ],
      "name": "transferFrom",
      "outputs": [],
      "stateMutability": "nonpayable",
      "type": "function"
    },
    {
      "inputs": [
        {
          "internalType": "address",
          "name": "newOwner",
          "type": "address"
        }
      ],
      "name": "transferOwnership",
      "outputs": [],
      "stateMutability": "nonpayable",
      "type": "function"
    }
  ],
  "bytecode": "0x608060405266038d7ea4c68000600b556103e8600c553480156200002257600080fd5b5060405162001e8638038062001e86833981016040819052620000459162000262565b8151829082906200005e906000906020850190620000ef565b50805162000074906001906020840190620000ef565b505050620000916200008b6200009960201b60201c565b6200009d565b505062000309565b3390565b600a80546001600160a01b038381166001600160a01b0319831681179093556040519116919082907f8be0079c531659141344cd1fd0a4f28419497f9722a3daafe3b4186f6b6457e090600090a35050565b828054620000fd90620002cc565b90600052602060002090601f0160209004810192826200012157600085556200016c565b82601f106200013c57805160ff19168380011785556200016c565b828001600101855582156200016c579182015b828111156200016c5782518255916020019190600101906200014f565b506200017a9291506200017e565b5090565b5b808211156200017a57600081556001016200017f565b634e487b7160e01b600052604160045260246000fd5b600082601f830112620001bd57600080fd5b81516001600160401b0380821115620001da57620001da62000195565b604051601f8301601f19908116603f0116810190828211818310171562000205576200020562000195565b816040528381526020925086838588010111156200022257600080fd5b600091505b8382101562000246578582018301518183018401529082019062000227565b83821115620002585760008385830101525b9695505050505050565b600080604083850312156200027657600080fd5b82516001600160401b03808211156200028e57600080fd5b6200029c86838701620001ab565b93506020850151915080821115620002b357600080fd5b50620002c285828601620001ab565b9150509250929050565b600181811c90821680620002e157607f821691505b602082108114156200030357634e487b7160e01b600052602260045260246000fd5b50919050565b611b6d80620003196000396000f3fe6080604052600436106101355760003560e01c80636352211e116100ab578063a22cb4651161006f578063a22cb46514610334578063b88d4fde14610354578063c87b56dd14610374578063d5abeb0114610394578063e985e9c5146103aa578063f2fde38b146103f357600080fd5b80636352211e146102ac57806370a08231146102cc578063715018a6146102ec5780638da5cb5b1461030157806395d89b411461031f57600080fd5b806313faede6116100fd57806313faede6146101f357806318160ddd1461021757806323b872dd1461022c5780632f745c591461024c57806342842e0e1461026c5780634f6ccce71461028c57600080fd5b806301ffc9a71461013a57806306fdde031461016f578063081812fc14610191578063095ea7b3146101c95780631249c58b146101eb575b600080fd5b34801561014657600080fd5b5061015a61015536600461167f565b610413565b60405190151581526020015b60405180910390f35b34801561017b57600080fd5b5061018461043e565b60405161016691906116f4565b34801561019d57600080fd5b506101b16101ac366004611707565b6104d0565b6040516001600160a01b039091168152602001610166565b3480156101d557600080fd5b506101e96101e436600461173c565b6104f7565b005b6101e9610612565b3480156101ff57600080fd5b50610209600b5481565b604051908152602001610166565b34801561022357600080fd5b50600854610209565b34801561023857600080fd5b506101e9610247366004611766565b6106e2565b34801561025857600080fd5b5061020961026736600461173c565b610713565b34801561027857600080fd5b506101e9610287366004611766565b6107a9565b34801561029857600080fd5b506102096102a7366004611707565b6107c4565b3480156102b857600080fd5b506101b16102c7366004611707565b610857565b3480156102d857600080fd5b506102096102e73660046117a2565b6108b7565b3480156102f857600080fd5b506101e961093d565b34801561030d57600080fd5b50600a546001600160a01b03166101b1565b34801561032b57600080fd5b50610184610951565b34801561034057600080fd5b506101e961034f3660046117bd565b610960565b34801561036057600080fd5b506101e961036f36600461180f565b61096f565b34801561038057600080fd5b5061018461038f366004611707565b6109a7565b3480156103a057600080fd5b50610209600c5481565b3480156103b657600080fd5b5061015a6103c53660046118eb565b6001600160a01b03918216600090815260056020908152604080832093909416825291909152205460ff1690565b3480156103ff57600080fd5b506101e961040e3660046117a2565b610a1b565b60006001600160e01b0319821663780e9d6360e01b1480610438575061043882610a91565b92915050565b60606000805461044d9061191e565b80601f01602080910402602001604051908101604052809291908181526020018280546104799061191e565b80156104c65780601f1061049b576101008083540402835291602001916104c6565b820191906000526020600020905b8154815290600101906020018083116104a957829003601f168201915b5050505050905090565b60006104db82610ae1565b506000908152600460205260409020546001600160a01b031690565b600061050282610857565b9050806001600160a01b0316836001600160a01b031614156105755760405162461bcd60e51b815260206004820152602160248201527f4552433732313a20617070726f76616c20746f2063757272656e74206f776e656044820152603960f91b60648201526084015b60405180910390fd5b336001600160a01b0382161480610591575061059181336103c5565b6106035760405162461bcd60e51b815260206004820152603d60248201527f4552433732313a20617070726f76652063616c6c6572206973206e6f7420746f60448201527f6b656e206f776e6572206f7220617070726f76656420666f7220616c6c000000606482015260840161056c565b61060d8383610b40565b505050565b600061061d60085490565b9050600c5481111561067b5760405162461bcd60e51b815260206004820152602160248201527f536f7272792c20616c6c204e4654732068617665206265656e206d696e7465646044820152602160f81b606482015260840161056c565b600034116106cb5760405162461bcd60e51b815260206004820152601a60248201527f457468657220746f6f206c6f7720666f72206d696e74696e6721000000000000604482015260640161056c565b6106df336106da83600161196f565b610bae565b50565b6106ec3382610bc8565b6107085760405162461bcd60e51b815260040161056c90611987565b61060d838383610c47565b600061071e836108b7565b82106107805760405162461bcd60e51b815260206004820152602b60248201527f455243373231456e756d657261626c653a206f776e657220696e646578206f7560448201526a74206f6620626f756e647360a81b606482015260840161056c565b506001600160a01b03919091166000908152600660209081526040808320938352929052205490565b61060d8383836040518060200160405280600081525061096f565b60006107cf60085490565b82106108325760405162461bcd60e51b815260206004820152602c60248201527f455243373231456e756d657261626c653a20676c6f62616c20696e646578206f60448201526b7574206f6620626f756e647360a01b606482015260840161056c565b60088281548110610845576108456119d4565b90600052602060002001549050919050565b6000818152600260205260408120546001600160a01b0316806104385760405162461bcd60e51b8152602060048201526018602482015277115490cdcc8c4e881a5b9d985b1a59081d1bdad95b88125160421b604482015260640161056c565b60006001600160a01b0382166109215760405162461bcd60e51b815260206004820152602960248201527f4552433732313a2061646472657373207a65726f206973206e6f7420612076616044820152683634b21037bbb732b960b91b606482015260840161056c565b506001600160a01b031660009081526003602052604090205490565b610945610db8565b61094f6000610e12565b565b60606001805461044d9061191e565b61096b338383610e64565b5050565b6109793383610bc8565b6109955760405162461bcd60e51b815260040161056c90611987565b6109a184848484610f33565b50505050565b60606109b282610ae1565b60006109c960408051602081019091526000815290565b905060008151116109e95760405180602001604052806000815250610a14565b806109f384610f66565b604051602001610a049291906119ea565b6040516020818303038152906040525b9392505050565b610a23610db8565b6001600160a01b038116610a885760405162461bcd60e51b815260206004820152602660248201527f4f776e61626c653a206e6577206f776e657220697320746865207a65726f206160448201526564647265737360d01b606482015260840161056c565b6106df81610e12565b60006001600160e01b031982166380ac58cd60e01b1480610ac257506001600160e01b03198216635b5e139f60e01b145b8061043857506301ffc9a760e01b6001600160e01b0319831614610438565b6000818152600260205260409020546001600160a01b03166106df5760405162461bcd60e51b8152602060048201526018602482015277115490cdcc8c4e881a5b9d985b1a59081d1bdad95b88125160421b604482015260640161056c565b600081815260046020526040902080546001600160a01b0319166001600160a01b0384169081179091558190610b7582610857565b6001600160a01b03167f8c5be1e5ebec7d5bd14f71427d1e84f3dd0314c0f7b2291e5b200ac8c7c3b92560405160405180910390a45050565b61096b828260405180602001604052806000815250611003565b600080610bd483610857565b9050806001600160a01b0316846001600160a01b03161480610c1b57506001600160a01b0380821660009081526005602090815260408083209388168352929052205460ff165b80610c3f5750836001600160a01b0316610c34846104d0565b6001600160a01b0316145b949350505050565b826001600160a01b0316610c5a82610857565b6001600160a01b031614610c805760405162461bcd60e51b815260040161056c90611a19565b6001600160a01b038216610ce25760405162461bcd60e51b8152602060048201526024808201527f4552433732313a207472616e7366657220746f20746865207a65726f206164646044820152637265737360e01b606482015260840161056c565b610cef8383836001611036565b826001600160a01b0316610d0282610857565b6001600160a01b031614610d285760405162461bcd60e51b815260040161056c90611a19565b600081815260046020908152604080832080546001600160a01b03199081169091556001600160a01b0387811680865260038552838620805460001901905590871680865283862080546001019055868652600290945282852080549092168417909155905184937fddf252ad1be2c89b69c2b068fc378daa952ba7f163c4a11628f55a4df523b3ef91a4505050565b600a546001600160a01b0316331461094f5760405162461bcd60e51b815260206004820181905260248201527f4f776e61626c653a2063616c6c6572206973206e6f7420746865206f776e6572604482015260640161056c565b600a80546001600160a01b038381166001600160a01b0319831681179093556040519116919082907f8be0079c531659141344cd1fd0a4f28419497f9722a3daafe3b4186f6b6457e090600090a35050565b816001600160a01b0316836001600160a01b03161415610ec65760405162461bcd60e51b815260206004820152601960248201527f4552433732313a20617070726f766520746f2063616c6c657200000000000000604482015260640161056c565b6001600160a01b03838116600081815260056020908152604080832094871680845294825291829020805460ff191686151590811790915591519182527f17307eab39ab6107e8899845ad3d59bd9653f200f220920489ca2b5937696c31910160405180910390a3505050565b610f3e848484610c47565b610f4a8484848461116a565b6109a15760405162461bcd60e51b815260040161056c90611a5e565b60606000610f7383611268565b600101905060008167ffffffffffffffff811115610f9357610f936117f9565b6040519080825280601f01601f191660200182016040528015610fbd576020820181803683370190505b5090508181016020015b600019016f181899199a1a9b1b9c1cb0b131b232b360811b600a86061a8153600a8504945084610ff657610ffb565b610fc7565b509392505050565b61100d8383611340565b61101a600084848461116a565b61060d5760405162461bcd60e51b815260040161056c90611a5e565b60018111156110a55760405162461bcd60e51b815260206004820152603560248201527f455243373231456e756d657261626c653a20636f6e7365637574697665207472604482015274185b9cd9995c9cc81b9bdd081cdd5c1c1bdc9d1959605a1b606482015260840161056c565b816001600160a01b038516611101576110fc81600880546000838152600960205260408120829055600182018355919091527ff3f7a9fe364faab93b216da50a3214154f22a0a2b415b23a84c8169e8b636ee30155565b611124565b836001600160a01b0316856001600160a01b0316146111245761112485826114d9565b6001600160a01b0384166111405761113b81611576565b611163565b846001600160a01b0316846001600160a01b031614611163576111638482611625565b5050505050565b60006001600160a01b0384163b1561125d57604051630a85bd0160e11b81526001600160a01b0385169063150b7a02906111ae903390899088908890600401611ab0565b6020604051808303816000875af19250505080156111e9575060408051601f3d908101601f191682019092526111e691810190611aed565b60015b611243573d808015611217576040519150601f19603f3d011682016040523d82523d6000602084013e61121c565b606091505b50805161123b5760405162461bcd60e51b815260040161056c90611a5e565b805181602001fd5b6001600160e01b031916630a85bd0160e11b149050610c3f565b506001949350505050565b60008072184f03e93ff9f4daa797ed6e38ed64bf6a1f0160401b83106112a75772184f03e93ff9f4daa797ed6e38ed64bf6a1f0160401b830492506040015b6d04ee2d6d415b85acef810000000083106112d3576d04ee2d6d415b85acef8100000000830492506020015b662386f26fc1000083106112f157662386f26fc10000830492506010015b6305f5e1008310611309576305f5e100830492506008015b612710831061131d57612710830492506004015b6064831061132f576064830492506002015b600a83106104385760010192915050565b6001600160a01b0382166113965760405162461bcd60e51b815260206004820181905260248201527f4552433732313a206d696e7420746f20746865207a65726f2061646472657373604482015260640161056c565b6000818152600260205260409020546001600160a01b0316156113fb5760405162461bcd60e51b815260206004820152601c60248201527f4552433732313a20746f6b656e20616c7265616479206d696e74656400000000604482015260640161056c565b611409600083836001611036565b6000818152600260205260409020546001600160a01b03161561146e5760405162461bcd60e51b815260206004820152601c60248201527f4552433732313a20746f6b656e20616c7265616479206d696e74656400000000604482015260640161056c565b6001600160a01b038216600081815260036020908152604080832080546001019055848352600290915280822080546001600160a01b0319168417905551839291907fddf252ad1be2c89b69c2b068fc378daa952ba7f163c4a11628f55a4df523b3ef908290a45050565b600060016114e6846108b7565b6114f09190611b0a565b600083815260076020526040902054909150808214611543576001600160a01b03841660009081526006602090815260408083208584528252808320548484528184208190558352600790915290208190555b5060009182526007602090815260408084208490556001600160a01b039094168352600681528383209183525290812055565b60085460009061158890600190611b0a565b600083815260096020526040812054600880549394509092849081106115b0576115b06119d4565b9060005260206000200154905080600883815481106115d1576115d16119d4565b600091825260208083209091019290925582815260099091526040808220849055858252812055600880548061160957611609611b21565b6001900381819060005260206000200160009055905550505050565b6000611630836108b7565b6001600160a01b039093166000908152600660209081526040808320868452825280832085905593825260079052919091209190915550565b6001600160e01b0319811681146106df57600080fd5b60006020828403121561169157600080fd5b8135610a1481611669565b60005b838110156116b757818101518382015260200161169f565b838111156109a15750506000910152565b600081518084526116e081602086016020860161169c565b601f01601f19169290920160200192915050565b602081526000610a1460208301846116c8565b60006020828403121561171957600080fd5b5035919050565b80356001600160a01b038116811461173757600080fd5b919050565b6000806040838503121561174f57600080fd5b61175883611720565b946020939093013593505050565b60008060006060848603121561177b57600080fd5b61178484611720565b925061179260208501611720565b9150604084013590509250925092565b6000602082840312156117b457600080fd5b610a1482611720565b600080604083850312156117d057600080fd5b6117d983611720565b9150602083013580151581146117ee57600080fd5b809150509250929050565b634e487b7160e01b600052604160045260246000fd5b6000806000806080858703121561182557600080fd5b61182e85611720565b935061183c60208601611720565b925060408501359150606085013567ffffffffffffffff8082111561186057600080fd5b818701915087601f83011261187457600080fd5b813581811115611886576118866117f9565b604051601f8201601f19908116603f011681019083821181831017156118ae576118ae6117f9565b816040528281528a60208487010111156118c757600080fd5b82602086016020830137600060208483010152809550505050505092959194509250565b600080604083850312156118fe57600080fd5b61190783611720565b915061191560208401611720565b90509250929050565b600181811c9082168061193257607f821691505b6020821081141561195357634e487b7160e01b600052602260045260246000fd5b50919050565b634e487b7160e01b600052601160045260246000fd5b6000821982111561198257611982611959565b500190565b6020808252602d908201527f4552433732313a2063616c6c6572206973206e6f7420746f6b656e206f776e6560408201526c1c881bdc88185c1c1c9bdd9959609a1b606082015260800190565b634e487b7160e01b600052603260045260246000fd5b600083516119fc81846020880161169c565b835190830190611a1081836020880161169c565b01949350505050565b60208082526025908201527f4552433732313a207472616e736665722066726f6d20696e636f72726563742060408201526437bbb732b960d91b606082015260800190565b60208082526032908201527f4552433732313a207472616e7366657220746f206e6f6e20455243373231526560408201527131b2b4bb32b91034b6b83632b6b2b73a32b960711b606082015260800190565b6001600160a01b0385811682528416602082015260408101839052608060608201819052600090611ae3908301846116c8565b9695505050505050565b600060208284031215611aff57600080fd5b8151610a1481611669565b600082821015611b1c57611b1c611959565b500390565b634e487b7160e01b600052603160045260246000fdfea2646970667358221220e2d074ae8d66af47a07bfc1858463b30bb27b8036bb710981d9aa55f296dfbf364736f6c634300080b0033",
  "linkReferences": {},
  "deployedLinkReferences": {}
}